{
  "contractName": "Image",
  "abi": [
    {
      "inputs": [
        {
          "internalType": "string",
          "name": "_ipfsId",
          "type": "string"
        }
      ],
      "stateMutability": "nonpayable",
      "type": "constructor"
    },
    {
      "inputs": [
        {
          "internalType": "uint256",
          "name": "",
          "type": "uint256"
        }
      ],
      "name": "acceptedAddresses",
      "outputs": [
        {
          "internalType": "address",
          "name": "",
          "type": "address"
        }
      ],
      "stateMutability": "view",
      "type": "function",
      "constant": true
    },
    {
      "inputs": [],
      "name": "ipfsId",
      "outputs": [
        {
          "internalType": "string",
          "name": "",
          "type": "string"
        }
      ],
      "stateMutability": "view",
      "type": "function",
      "constant": true
    },
    {
      "inputs": [
        {
          "internalType": "uint256",
          "name": "",
          "type": "uint256"
        }
      ],
      "name": "rejectedAddresses",
      "outputs": [
        {
          "internalType": "address",
          "name": "",
          "type": "address"
        }
      ],
      "stateMutability": "view",
      "type": "function",
      "constant": true
    },
    {
      "inputs": [
        {
          "internalType": "address",
          "name": "newAddress",
          "type": "address"
        }
      ],
      "name": "addToAccepted",
      "outputs": [],
      "stateMutability": "nonpayable",
      "type": "function"
    },
    {
      "inputs": [
        {
          "internalType": "address",
          "name": "newAddress",
          "type": "address"
        }
      ],
      "name": "addToRejected",
      "outputs": [],
      "stateMutability": "nonpayable",
      "type": "function"
    },
    {
      "inputs": [
        {
          "internalType": "address",
          "name": "addressToRemove",
          "type": "address"
        }
      ],
      "name": "removeFromAccepted",
      "outputs": [],
      "stateMutability": "nonpayable",
      "type": "function"
    },
    {
      "inputs": [
        {
          "internalType": "address",
          "name": "addressToRemove",
          "type": "address"
        }
      ],
      "name": "removeFromRejected",
      "outputs": [],
      "stateMutability": "nonpayable",
      "type": "function"
    },
    {
      "inputs": [
        {
          "internalType": "address",
          "name": "queryAddress",
          "type": "address"
        }
      ],
      "name": "isAccepted",
      "outputs": [
        {
          "internalType": "bool",
          "name": "",
          "type": "bool"
        }
      ],
      "stateMutability": "view",
      "type": "function",
      "constant": true
    },
    {
      "inputs": [
        {
          "internalType": "address",
          "name": "queryAddress",
          "type": "address"
        }
      ],
      "name": "isRejected",
      "outputs": [
        {
          "internalType": "bool",
          "name": "",
          "type": "bool"
        }
      ],
      "stateMutability": "view",
      "type": "function",
      "constant": true
    }
  ],
  "bytecode": "0x60806040523480156200001157600080fd5b50604051620012ef380380620012ef8339818101604052810190620000379190620001e3565b80600090816200004891906200047f565b505062000566565b6000604051905090565b600080fd5b600080fd5b600080fd5b600080fd5b6000601f19601f8301169050919050565b7f4e487b7100000000000000000000000000000000000000000000000000000000600052604160045260246000fd5b620000b9826200006e565b810181811067ffffffffffffffff82111715620000db57620000da6200007f565b5b80604052505050565b6000620000f062000050565b9050620000fe8282620000ae565b919050565b600067ffffffffffffffff8211156200012157620001206200007f565b5b6200012c826200006e565b9050602081019050919050565b60005b83811015620001595780820151818401526020810190506200013c565b60008484015250505050565b60006200017c620001768462000103565b620000e4565b9050828152602081018484840111156200019b576200019a62000069565b5b620001a884828562000139565b509392505050565b600082601f830112620001c857620001c762000064565b5b8151620001da84826020860162000165565b91505092915050565b600060208284031215620001fc57620001fb6200005a565b5b600082015167ffffffffffffffff8111156200021d576200021c6200005f565b5b6200022b84828501620001b0565b91505092915050565b600081519050919050565b7f4e487b7100000000000000000000000000000000000000000000000000000000600052602260045260246000fd5b600060028204905060018216806200028757607f821691505b6020821081036200029d576200029c6200023f565b5b50919050565b60008190508160005260206000209050919050565b60006020601f8301049050919050565b600082821b905092915050565b600060088302620003077fffffffffffffffffffffffffffffffffffffffffffffffffffffffffffffffff82620002c8565b620003138683620002c8565b95508019841693508086168417925050509392505050565b6000819050919050565b6000819050919050565b6000620003606200035a62000354846200032b565b62000335565b6200032b565b9050919050565b6000819050919050565b6200037c836200033f565b620003946200038b8262000367565b848454620002d5565b825550505050565b600090565b620003ab6200039c565b620003b881848462000371565b505050565b5b81811015620003e057620003d4600082620003a1565b600181019050620003be565b5050565b601f8211156200042f57620003f981620002a3565b6200040484620002b8565b8101602085101562000414578190505b6200042c6200042385620002b8565b830182620003bd565b50505b505050565b600082821c905092915050565b6000620004546000198460080262000434565b1980831691505092915050565b60006200046f838362000441565b9150826002028217905092915050565b6200048a8262000234565b67ffffffffffffffff811115620004a657620004a56200007f565b5b620004b282546200026e565b620004bf828285620003e4565b600060209050601f831160018114620004f75760008415620004e2578287015190505b620004ee858262000461565b8655506200055e565b601f1984166200050786620002a3565b60005b8281101562000531578489015182556001820191506020850194506020810190506200050a565b868310156200055157848901516200054d601f89168262000441565b8355505b6001600288020188555050505b505050505050565b610d7980620005766000396000f3fe608060405234801561001057600080fd5b50600436106100925760003560e01c8063b103030b11610066578063b103030b1461011b578063e16d75171461014b578063e2e7e9631461017b578063e6f091f914610197578063e9896cae146101c757610092565b8062a3d8cb1461009757806348a46bd3146100b35780634c8d8232146100e357806370782483146100ff575b600080fd5b6100b160048036038101906100ac9190610960565b6101e5565b005b6100cd60048036038101906100c89190610960565b6102ac565b6040516100da91906109a8565b60405180910390f35b6100fd60048036038101906100f89190610960565b61035a565b005b61011960048036038101906101149190610960565b6104ec565b005b610135600480360381019061013091906109f9565b6105b3565b6040516101429190610a35565b60405180910390f35b610165600480360381019061016091906109f9565b6105f2565b6040516101729190610a35565b60405180910390f35b61019560048036038101906101909190610960565b610631565b005b6101b160048036038101906101ac9190610960565b6107c1565b6040516101be91906109a8565b60405180910390f35b6101cf61086f565b6040516101dc9190610ae0565b60405180910390f35b6101ee816102ac565b1561022e576040517f08c379a000000000000000000000000000000000000000000000000000000000815260040161022590610b4e565b60405180910390fd5b610237816107c1565b156102465761024581610631565b5b6002819080600181540180825580915050600190039060005260206000200160009091909190916101000a81548173ffffffffffffffffffffffffffffffffffffffff021916908373ffffffffffffffffffffffffffffffffffffffff16021790555050565b600080600090505b60028054905081101561034f578273ffffffffffffffffffffffffffffffffffffffff16600282815481106102ec576102eb610b6e565b5b9060005260206000200160009054906101000a900473ffffffffffffffffffffffffffffffffffffffff1673ffffffffffffffffffffffffffffffffffffffff160361033c576001915050610355565b808061034790610bcc565b9150506102b4565b50600090505b919050565b60005b6002805490508110156104e7578173ffffffffffffffffffffffffffffffffffffffff166002828154811061039557610394610b6e565b5b9060005260206000200160009054906101000a900473ffffffffffffffffffffffffffffffffffffffff1673ffffffffffffffffffffffffffffffffffffffff16036104d457600260016002805490506103ef9190610c14565b81548110610400576103ff610b6e565b5b9060005260206000200160009054906101000a900473ffffffffffffffffffffffffffffffffffffffff166002828154811061043f5761043e610b6e565b5b9060005260206000200160006101000a81548173ffffffffffffffffffffffffffffffffffffffff021916908373ffffffffffffffffffffffffffffffffffffffff160217905550600280548061049957610498610c48565b5b6001900381819060005260206000200160006101000a81549073ffffffffffffffffffffffffffffffffffffffff02191690559055506104e9565b80806104df90610bcc565b91505061035d565b505b50565b6104f5816107c1565b15610535576040517f08c379a000000000000000000000000000000000000000000000000000000000815260040161052c90610cc3565b60405180910390fd5b61053e816102ac565b1561054d5761054c8161035a565b5b6001819080600181540180825580915050600190039060005260206000200160009091909190916101000a81548173ffffffffffffffffffffffffffffffffffffffff021916908373ffffffffffffffffffffffffffffffffffffffff16021790555050565b600181815481106105c357600080fd5b906000526020600020016000915054906101000a900473ffffffffffffffffffffffffffffffffffffffff1681565b6002818154811061060257600080fd5b906000526020600020016000915054906101000a900473ffffffffffffffffffffffffffffffffffffffff1681565b60005b6001805490508110156107bc578173ffffffffffffffffffffffffffffffffffffffff166001828154811061066c5761066b610b6e565b5b9060005260206000200160009054906101000a900473ffffffffffffffffffffffffffffffffffffffff1673ffffffffffffffffffffffffffffffffffffffff16036107a95760018080805490506106c49190610c14565b815481106106d5576106d4610b6e565b5b9060005260206000200160009054906101000a900473ffffffffffffffffffffffffffffffffffffffff166001828154811061071457610713610b6e565b5b9060005260206000200160006101000a81548173ffffffffffffffffffffffffffffffffffffffff021916908373ffffffffffffffffffffffffffffffffffffffff160217905550600180548061076e5761076d610c48565b5b6001900381819060005260206000200160006101000a81549073ffffffffffffffffffffffffffffffffffffffff02191690559055506107be565b80806107b490610bcc565b915050610634565b505b50565b600080600090505b600180549050811015610864578273ffffffffffffffffffffffffffffffffffffffff166001828154811061080157610800610b6e565b5b9060005260206000200160009054906101000a900473ffffffffffffffffffffffffffffffffffffffff1673ffffffffffffffffffffffffffffffffffffffff160361085157600191505061086a565b808061085c90610bcc565b9150506107c9565b50600090505b919050565b6000805461087c90610d12565b80601f01602080910402602001604051908101604052809291908181526020018280546108a890610d12565b80156108f55780601f106108ca576101008083540402835291602001916108f5565b820191906000526020600020905b8154815290600101906020018083116108d857829003601f168201915b505050505081565b600080fd5b600073ffffffffffffffffffffffffffffffffffffffff82169050919050565b600061092d82610902565b9050919050565b61093d81610922565b811461094857600080fd5b50565b60008135905061095a81610934565b92915050565b600060208284031215610976576109756108fd565b5b60006109848482850161094b565b91505092915050565b60008115159050919050565b6109a28161098d565b82525050565b60006020820190506109bd6000830184610999565b92915050565b6000819050919050565b6109d6816109c3565b81146109e157600080fd5b50565b6000813590506109f3816109cd565b92915050565b600060208284031215610a0f57610a0e6108fd565b5b6000610a1d848285016109e4565b91505092915050565b610a2f81610922565b82525050565b6000602082019050610a4a6000830184610a26565b92915050565b600081519050919050565b600082825260208201905092915050565b60005b83811015610a8a578082015181840152602081019050610a6f565b60008484015250505050565b6000601f19601f8301169050919050565b6000610ab282610a50565b610abc8185610a5b565b9350610acc818560208601610a6c565b610ad581610a96565b840191505092915050565b60006020820190508181036000830152610afa8184610aa7565b905092915050565b7f4164647265737320616c72656164792072656a65637465640000000000000000600082015250565b6000610b38601883610a5b565b9150610b4382610b02565b602082019050919050565b60006020820190508181036000830152610b6781610b2b565b9050919050565b7f4e487b7100000000000000000000000000000000000000000000000000000000600052603260045260246000fd5b7f4e487b7100000000000000000000000000000000000000000000000000000000600052601160045260246000fd5b6000610bd7826109c3565b91507fffffffffffffffffffffffffffffffffffffffffffffffffffffffffffffffff8203610c0957610c08610b9d565b5b600182019050919050565b6000610c1f826109c3565b9150610c2a836109c3565b9250828203905081811115610c4257610c41610b9d565b5b92915050565b7f4e487b7100000000000000000000000000000000000000000000000000000000600052603160045260246000fd5b7f596f75206861766520616c726561647920766f74656400000000000000000000600082015250565b6000610cad601683610a5b565b9150610cb882610c77565b602082019050919050565b60006020820190508181036000830152610cdc81610ca0565b9050919050565b7f4e487b7100000000000000000000000000000000000000000000000000000000600052602260045260246000fd5b60006002820490506001821680610d2a57607f821691505b602082108103610d3d57610d3c610ce3565b5b5091905056fea2646970667358221220267242f2107ada7ef851bdc8f7a5cbb396df7a1c1e54feff3abf9eeacd7ac3af64736f6c63430008130033",
  "immutableReferences": {},
  "source": "// SPDX-License-Identifier: MIT\npragma solidity ^0.8.0;\n\ncontract Image {\n    string public ipfsId;\n    address[] public acceptedAddresses;\n    address[] public rejectedAddresses;\n\n    constructor(string memory _ipfsId) {\n        ipfsId = _ipfsId;\n    }\n\n    function addToAccepted(address newAddress) public {\n        require(!isAccepted(newAddress), \"You have already voted\");\n\n        \n        if (isRejected(newAddress)) {\n            removeFromRejected(newAddress);\n        }\n\n        acceptedAddresses.push(newAddress);\n    }\n\n    function addToRejected(address newAddress) public {\n        require(!isRejected(newAddress), \"Address already rejected\");\n      \n        if (isAccepted(newAddress)) {\n            removeFromAccepted(newAddress);\n        }\n\n        rejectedAddresses.push(newAddress);\n    }\n\n    function removeFromAccepted(address addressToRemove) public {\n        for (uint i = 0; i < acceptedAddresses.length; i++) {\n            if (acceptedAddresses[i] == addressToRemove) {\n                acceptedAddresses[i] = acceptedAddresses[acceptedAddresses.length - 1];\n                acceptedAddresses.pop();\n                return;\n            }\n        }\n    }\n\n    function removeFromRejected(address addressToRemove) public {\n        for (uint i = 0; i < rejectedAddresses.length; i++) {\n            if (rejectedAddresses[i] == addressToRemove) {\n                rejectedAddresses[i] = rejectedAddresses[rejectedAddresses.length - 1];\n                rejectedAddresses.pop();\n                return;\n            }\n        }\n    }\n\n    function isAccepted(address queryAddress) public view returns (bool) {\n        for (uint i = 0; i < acceptedAddresses.length; i++) {\n            if (acceptedAddresses[i] == queryAddress) {\n                return true;\n            }\n        }\n        return false;\n    }\n\n    function isRejected(address queryAddress) public view returns (bool) {\n        for (uint i = 0; i < rejectedAddresses.length; i++) {\n            if (rejectedAddresses[i] == queryAddress) {\n                return true;\n            }\n        }\n        return false;\n    }\n}\n",
  "sourcePath": "/home/alpha/Code/Hackathon/Cognition/blockchain/contracts/Image.sol",
  "compiler": {
    "name": "solc",
    "version": "0.8.19+commit.7dd6d404.Emscripten.clang"
  },
  "schemaVersion": "3.4.13",
  "updatedAt": "2023-05-05T18:28:57.376Z",
  "networkType": "ethereum",
  "devdoc": {
    "kind": "dev",
    "methods": {},
    "version": 1
  },
  "userdoc": {
    "kind": "user",
    "methods": {},
    "version": 1
  }
}