{
  "contractName": "Image",
  "abi": [
    {
      "inputs": [
        {
          "internalType": "string",
          "name": "_ipfsId",
          "type": "string"
        }
      ],
      "stateMutability": "nonpayable",
      "type": "constructor"
    },
    {
      "inputs": [
        {
          "internalType": "uint256",
          "name": "",
          "type": "uint256"
        }
      ],
      "name": "acceptedAddresses",
      "outputs": [
        {
          "internalType": "address",
          "name": "",
          "type": "address"
        }
      ],
      "stateMutability": "view",
      "type": "function",
      "constant": true
    },
    {
      "inputs": [],
      "name": "ipfsId",
      "outputs": [
        {
          "internalType": "string",
          "name": "",
          "type": "string"
        }
      ],
      "stateMutability": "view",
      "type": "function",
      "constant": true
    },
    {
      "inputs": [
        {
          "internalType": "uint256",
          "name": "",
          "type": "uint256"
        }
      ],
      "name": "rejectedAddresses",
      "outputs": [
        {
          "internalType": "address",
          "name": "",
          "type": "address"
        }
      ],
      "stateMutability": "view",
      "type": "function",
      "constant": true
    },
    {
      "inputs": [
        {
          "internalType": "address",
          "name": "newAddress",
          "type": "address"
        }
      ],
      "name": "addToAccepted",
      "outputs": [],
      "stateMutability": "payable",
      "type": "function",
      "payable": true
    },
    {
      "inputs": [
        {
          "internalType": "address",
          "name": "newAddress",
          "type": "address"
        }
      ],
      "name": "addToRejected",
      "outputs": [],
      "stateMutability": "payable",
      "type": "function",
      "payable": true
    },
    {
      "inputs": [
        {
          "internalType": "address",
          "name": "addressToRemove",
          "type": "address"
        }
      ],
      "name": "removeFromAccepted",
      "outputs": [],
      "stateMutability": "nonpayable",
      "type": "function"
    },
    {
      "inputs": [
        {
          "internalType": "address",
          "name": "addressToRemove",
          "type": "address"
        }
      ],
      "name": "removeFromRejected",
      "outputs": [],
      "stateMutability": "nonpayable",
      "type": "function"
    },
    {
      "inputs": [
        {
          "internalType": "address",
          "name": "queryAddress",
          "type": "address"
        }
      ],
      "name": "isAccepted",
      "outputs": [
        {
          "internalType": "bool",
          "name": "",
          "type": "bool"
        }
      ],
      "stateMutability": "view",
      "type": "function",
      "constant": true
    },
    {
      "inputs": [
        {
          "internalType": "address",
          "name": "queryAddress",
          "type": "address"
        }
      ],
      "name": "isRejected",
      "outputs": [
        {
          "internalType": "bool",
          "name": "",
          "type": "bool"
        }
      ],
      "stateMutability": "view",
      "type": "function",
      "constant": true
    }
  ],
  "bytecode": "0x60806040523480156200001157600080fd5b50604051620012d1380380620012d18339818101604052810190620000379190620001e3565b80600090816200004891906200047f565b505062000566565b6000604051905090565b600080fd5b600080fd5b600080fd5b600080fd5b6000601f19601f8301169050919050565b7f4e487b7100000000000000000000000000000000000000000000000000000000600052604160045260246000fd5b620000b9826200006e565b810181811067ffffffffffffffff82111715620000db57620000da6200007f565b5b80604052505050565b6000620000f062000050565b9050620000fe8282620000ae565b919050565b600067ffffffffffffffff8211156200012157620001206200007f565b5b6200012c826200006e565b9050602081019050919050565b60005b83811015620001595780820151818401526020810190506200013c565b60008484015250505050565b60006200017c620001768462000103565b620000e4565b9050828152602081018484840111156200019b576200019a62000069565b5b620001a884828562000139565b509392505050565b600082601f830112620001c857620001c762000064565b5b8151620001da84826020860162000165565b91505092915050565b600060208284031215620001fc57620001fb6200005a565b5b600082015167ffffffffffffffff8111156200021d576200021c6200005f565b5b6200022b84828501620001b0565b91505092915050565b600081519050919050565b7f4e487b7100000000000000000000000000000000000000000000000000000000600052602260045260246000fd5b600060028204905060018216806200028757607f821691505b6020821081036200029d576200029c6200023f565b5b50919050565b60008190508160005260206000209050919050565b60006020601f8301049050919050565b600082821b905092915050565b600060088302620003077fffffffffffffffffffffffffffffffffffffffffffffffffffffffffffffffff82620002c8565b620003138683620002c8565b95508019841693508086168417925050509392505050565b6000819050919050565b6000819050919050565b6000620003606200035a62000354846200032b565b62000335565b6200032b565b9050919050565b6000819050919050565b6200037c836200033f565b620003946200038b8262000367565b848454620002d5565b825550505050565b600090565b620003ab6200039c565b620003b881848462000371565b505050565b5b81811015620003e057620003d4600082620003a1565b600181019050620003be565b5050565b601f8211156200042f57620003f981620002a3565b6200040484620002b8565b8101602085101562000414578190505b6200042c6200042385620002b8565b830182620003bd565b50505b505050565b600082821c905092915050565b6000620004546000198460080262000434565b1980831691505092915050565b60006200046f838362000441565b9150826002028217905092915050565b6200048a8262000234565b67ffffffffffffffff811115620004a657620004a56200007f565b5b620004b282546200026e565b620004bf828285620003e4565b600060209050601f831160018114620004f75760008415620004e2578287015190505b620004ee858262000461565b8655506200055e565b601f1984166200050786620002a3565b60005b8281101562000531578489015182556001820191506020850194506020810190506200050a565b868310156200055157848901516200054d601f89168262000441565b8355505b6001600288020188555050505b505050505050565b610d5b80620005766000396000f3fe6080604052600436106100855760003560e01c8063b103030b11610059578063b103030b14610128578063e16d751714610165578063e2e7e963146101a2578063e6f091f9146101cb578063e9896cae1461020857610085565b8062a3d8cb1461008a57806348a46bd3146100a65780634c8d8232146100e3578063707824831461010c575b600080fd5b6100a4600480360381019061009f91906109ae565b610233565b005b3480156100b257600080fd5b506100cd60048036038101906100c891906109ae565b6102fa565b6040516100da91906109f6565b60405180910390f35b3480156100ef57600080fd5b5061010a600480360381019061010591906109ae565b6103a8565b005b610126600480360381019061012191906109ae565b61053a565b005b34801561013457600080fd5b5061014f600480360381019061014a9190610a47565b610601565b60405161015c9190610a83565b60405180910390f35b34801561017157600080fd5b5061018c60048036038101906101879190610a47565b610640565b6040516101999190610a83565b60405180910390f35b3480156101ae57600080fd5b506101c960048036038101906101c491906109ae565b61067f565b005b3480156101d757600080fd5b506101f260048036038101906101ed91906109ae565b61080f565b6040516101ff91906109f6565b60405180910390f35b34801561021457600080fd5b5061021d6108bd565b60405161022a9190610b2e565b60405180910390f35b61023c816102fa565b1561027c576040517f08c379a000000000000000000000000000000000000000000000000000000000815260040161027390610b9c565b60405180910390fd5b6102858161080f565b15610294576102938161067f565b5b6002819080600181540180825580915050600190039060005260206000200160009091909190916101000a81548173ffffffffffffffffffffffffffffffffffffffff021916908373ffffffffffffffffffffffffffffffffffffffff16021790555050565b600080600090505b60028054905081101561039d578273ffffffffffffffffffffffffffffffffffffffff166002828154811061033a57610339610bbc565b5b9060005260206000200160009054906101000a900473ffffffffffffffffffffffffffffffffffffffff1673ffffffffffffffffffffffffffffffffffffffff160361038a5760019150506103a3565b808061039590610c1a565b915050610302565b50600090505b919050565b60005b600280549050811015610535578173ffffffffffffffffffffffffffffffffffffffff16600282815481106103e3576103e2610bbc565b5b9060005260206000200160009054906101000a900473ffffffffffffffffffffffffffffffffffffffff1673ffffffffffffffffffffffffffffffffffffffff1603610522576002600160028054905061043d9190610c62565b8154811061044e5761044d610bbc565b5b9060005260206000200160009054906101000a900473ffffffffffffffffffffffffffffffffffffffff166002828154811061048d5761048c610bbc565b5b9060005260206000200160006101000a81548173ffffffffffffffffffffffffffffffffffffffff021916908373ffffffffffffffffffffffffffffffffffffffff16021790555060028054806104e7576104e6610c96565b5b6001900381819060005260206000200160006101000a81549073ffffffffffffffffffffffffffffffffffffffff0219169055905550610537565b808061052d90610c1a565b9150506103ab565b505b50565b6105438161080f565b15610583576040517f08c379a000000000000000000000000000000000000000000000000000000000815260040161057a90610b9c565b60405180910390fd5b61058c816102fa565b1561059b5761059a816103a8565b5b6001819080600181540180825580915050600190039060005260206000200160009091909190916101000a81548173ffffffffffffffffffffffffffffffffffffffff021916908373ffffffffffffffffffffffffffffffffffffffff16021790555050565b6001818154811061061157600080fd5b906000526020600020016000915054906101000a900473ffffffffffffffffffffffffffffffffffffffff1681565b6002818154811061065057600080fd5b906000526020600020016000915054906101000a900473ffffffffffffffffffffffffffffffffffffffff1681565b60005b60018054905081101561080a578173ffffffffffffffffffffffffffffffffffffffff16600182815481106106ba576106b9610bbc565b5b9060005260206000200160009054906101000a900473ffffffffffffffffffffffffffffffffffffffff1673ffffffffffffffffffffffffffffffffffffffff16036107f75760018080805490506107129190610c62565b8154811061072357610722610bbc565b5b9060005260206000200160009054906101000a900473ffffffffffffffffffffffffffffffffffffffff166001828154811061076257610761610bbc565b5b9060005260206000200160006101000a81548173ffffffffffffffffffffffffffffffffffffffff021916908373ffffffffffffffffffffffffffffffffffffffff16021790555060018054806107bc576107bb610c96565b5b6001900381819060005260206000200160006101000a81549073ffffffffffffffffffffffffffffffffffffffff021916905590555061080c565b808061080290610c1a565b915050610682565b505b50565b600080600090505b6001805490508110156108b2578273ffffffffffffffffffffffffffffffffffffffff166001828154811061084f5761084e610bbc565b5b9060005260206000200160009054906101000a900473ffffffffffffffffffffffffffffffffffffffff1673ffffffffffffffffffffffffffffffffffffffff160361089f5760019150506108b8565b80806108aa90610c1a565b915050610817565b50600090505b919050565b600080546108ca90610cf4565b80601f01602080910402602001604051908101604052809291908181526020018280546108f690610cf4565b80156109435780601f1061091857610100808354040283529160200191610943565b820191906000526020600020905b81548152906001019060200180831161092657829003601f168201915b505050505081565b600080fd5b600073ffffffffffffffffffffffffffffffffffffffff82169050919050565b600061097b82610950565b9050919050565b61098b81610970565b811461099657600080fd5b50565b6000813590506109a881610982565b92915050565b6000602082840312156109c4576109c361094b565b5b60006109d284828501610999565b91505092915050565b60008115159050919050565b6109f0816109db565b82525050565b6000602082019050610a0b60008301846109e7565b92915050565b6000819050919050565b610a2481610a11565b8114610a2f57600080fd5b50565b600081359050610a4181610a1b565b92915050565b600060208284031215610a5d57610a5c61094b565b5b6000610a6b84828501610a32565b91505092915050565b610a7d81610970565b82525050565b6000602082019050610a986000830184610a74565b92915050565b600081519050919050565b600082825260208201905092915050565b60005b83811015610ad8578082015181840152602081019050610abd565b60008484015250505050565b6000601f19601f8301169050919050565b6000610b0082610a9e565b610b0a8185610aa9565b9350610b1a818560208601610aba565b610b2381610ae4565b840191505092915050565b60006020820190508181036000830152610b488184610af5565b905092915050565b7f596f75206861766520616c726561647920766f74656400000000000000000000600082015250565b6000610b86601683610aa9565b9150610b9182610b50565b602082019050919050565b60006020820190508181036000830152610bb581610b79565b9050919050565b7f4e487b7100000000000000000000000000000000000000000000000000000000600052603260045260246000fd5b7f4e487b7100000000000000000000000000000000000000000000000000000000600052601160045260246000fd5b6000610c2582610a11565b91507fffffffffffffffffffffffffffffffffffffffffffffffffffffffffffffffff8203610c5757610c56610beb565b5b600182019050919050565b6000610c6d82610a11565b9150610c7883610a11565b9250828203905081811115610c9057610c8f610beb565b5b92915050565b7f4e487b7100000000000000000000000000000000000000000000000000000000600052603160045260246000fd5b7f4e487b7100000000000000000000000000000000000000000000000000000000600052602260045260246000fd5b60006002820490506001821680610d0c57607f821691505b602082108103610d1f57610d1e610cc5565b5b5091905056fea2646970667358221220e48189a1c4a4790c87777371c16a16a91dc00deb333c3643cc16a4a747759f9864736f6c63430008130033",
  "immutableReferences": {},
  "source": "// SPDX-License-Identifier: MIT\npragma solidity ^0.8.0;\n\ncontract Image {\n    string public ipfsId;\n    address[] public acceptedAddresses;\n    address[] public rejectedAddresses;\n\n    constructor(string memory _ipfsId) {\n        ipfsId = _ipfsId;\n    }\n\n    function addToAccepted(address newAddress) public payable{\n        require(!isAccepted(newAddress), \"You have already voted\");\n\n        \n        if (isRejected(newAddress)) {\n            removeFromRejected(newAddress);\n        }\n\n        acceptedAddresses.push(newAddress);\n    }\n\n    function addToRejected(address newAddress) public payable{\n        require(!isRejected(newAddress), \"You have already voted\");\n      \n        if (isAccepted(newAddress)) {\n            removeFromAccepted(newAddress);\n        }\n\n        rejectedAddresses.push(newAddress);\n    }\n\n    function removeFromAccepted(address addressToRemove) public {\n        for (uint i = 0; i < acceptedAddresses.length; i++) {\n            if (acceptedAddresses[i] == addressToRemove) {\n                acceptedAddresses[i] = acceptedAddresses[acceptedAddresses.length - 1];\n                acceptedAddresses.pop();\n                return;\n            }\n        }\n    }\n\n    function removeFromRejected(address addressToRemove) public {\n        for (uint i = 0; i < rejectedAddresses.length; i++) {\n            if (rejectedAddresses[i] == addressToRemove) {\n                rejectedAddresses[i] = rejectedAddresses[rejectedAddresses.length - 1];\n                rejectedAddresses.pop();\n                return;\n            }\n        }\n    }\n\n    function isAccepted(address queryAddress) public view returns (bool) {\n        for (uint i = 0; i < acceptedAddresses.length; i++) {\n            if (acceptedAddresses[i] == queryAddress) {\n                return true;\n            }\n        }\n        return false;\n    }\n\n    function isRejected(address queryAddress) public view returns (bool) {\n        for (uint i = 0; i < rejectedAddresses.length; i++) {\n            if (rejectedAddresses[i] == queryAddress) {\n                return true;\n            }\n        }\n        return false;\n    }\n}\n",
  "sourcePath": "/home/alpha/Code/Hackathon/Cognition/blockchain/contracts/Image.sol",
  "compiler": {
    "name": "solc",
    "version": "0.8.19+commit.7dd6d404.Emscripten.clang"
  },
  "schemaVersion": "3.4.13",
  "updatedAt": "2023-05-06T02:51:47.816Z",
  "networkType": "ethereum",
  "devdoc": {
    "kind": "dev",
    "methods": {},
    "version": 1
  },
  "userdoc": {
    "kind": "user",
    "methods": {},
    "version": 1
  }
}