{
  "contractName": "Image",
  "abi": [
    {
      "inputs": [
        {
          "internalType": "string",
          "name": "_ipfsId",
          "type": "string"
        },
        {
          "internalType": "string",
          "name": "_fileName",
          "type": "string"
        }
      ],
      "stateMutability": "nonpayable",
      "type": "constructor"
    },
    {
      "anonymous": false,
      "inputs": [
        {
          "indexed": true,
          "internalType": "address",
          "name": "voter",
          "type": "address"
        }
      ],
      "name": "Accepted",
      "type": "event"
    },
    {
      "anonymous": false,
      "inputs": [
        {
          "indexed": true,
          "internalType": "address",
          "name": "voter",
          "type": "address"
        }
      ],
      "name": "Rejected",
      "type": "event"
    },
    {
      "inputs": [
        {
          "internalType": "uint256",
          "name": "",
          "type": "uint256"
        }
      ],
      "name": "acceptedAddresses",
      "outputs": [
        {
          "internalType": "address",
          "name": "",
          "type": "address"
        }
      ],
      "stateMutability": "view",
      "type": "function",
      "constant": true
    },
    {
      "inputs": [],
      "name": "fileName",
      "outputs": [
        {
          "internalType": "string",
          "name": "",
          "type": "string"
        }
      ],
      "stateMutability": "view",
      "type": "function",
      "constant": true
    },
    {
      "inputs": [],
      "name": "ipfsId",
      "outputs": [
        {
          "internalType": "string",
          "name": "",
          "type": "string"
        }
      ],
      "stateMutability": "view",
      "type": "function",
      "constant": true
    },
    {
      "inputs": [
        {
          "internalType": "uint256",
          "name": "",
          "type": "uint256"
        }
      ],
      "name": "rejectedAddresses",
      "outputs": [
        {
          "internalType": "address",
          "name": "",
          "type": "address"
        }
      ],
      "stateMutability": "view",
      "type": "function",
      "constant": true
    },
    {
      "inputs": [
        {
          "internalType": "address",
          "name": "newAddress",
          "type": "address"
        }
      ],
      "name": "addToAccepted",
      "outputs": [],
      "stateMutability": "nonpayable",
      "type": "function"
    },
    {
      "inputs": [
        {
          "internalType": "address",
          "name": "newAddress",
          "type": "address"
        }
      ],
      "name": "addToRejected",
      "outputs": [],
      "stateMutability": "nonpayable",
      "type": "function"
    },
    {
      "inputs": [
        {
          "internalType": "address",
          "name": "addressToRemove",
          "type": "address"
        }
      ],
      "name": "removeFromAccepted",
      "outputs": [],
      "stateMutability": "nonpayable",
      "type": "function"
    },
    {
      "inputs": [
        {
          "internalType": "address",
          "name": "addressToRemove",
          "type": "address"
        }
      ],
      "name": "removeFromRejected",
      "outputs": [],
      "stateMutability": "nonpayable",
      "type": "function"
    },
    {
      "inputs": [
        {
          "internalType": "address",
          "name": "queryAddress",
          "type": "address"
        }
      ],
      "name": "isAccepted",
      "outputs": [
        {
          "internalType": "bool",
          "name": "",
          "type": "bool"
        }
      ],
      "stateMutability": "view",
      "type": "function",
      "constant": true
    },
    {
      "inputs": [
        {
          "internalType": "address",
          "name": "queryAddress",
          "type": "address"
        }
      ],
      "name": "isRejected",
      "outputs": [
        {
          "internalType": "bool",
          "name": "",
          "type": "bool"
        }
      ],
      "stateMutability": "view",
      "type": "function",
      "constant": true
    }
  ],
  "bytecode": "0x60806040523480156200001157600080fd5b50604051620014d3380380620014d38339818101604052810190620000379190620001f6565b8160009081620000489190620004c6565b5080600190816200005a9190620004c6565b505050620005ad565b6000604051905090565b600080fd5b600080fd5b600080fd5b600080fd5b6000601f19601f8301169050919050565b7f4e487b7100000000000000000000000000000000000000000000000000000000600052604160045260246000fd5b620000cc8262000081565b810181811067ffffffffffffffff82111715620000ee57620000ed62000092565b5b80604052505050565b60006200010362000063565b9050620001118282620000c1565b919050565b600067ffffffffffffffff82111562000134576200013362000092565b5b6200013f8262000081565b9050602081019050919050565b60005b838110156200016c5780820151818401526020810190506200014f565b60008484015250505050565b60006200018f620001898462000116565b620000f7565b905082815260208101848484011115620001ae57620001ad6200007c565b5b620001bb8482856200014c565b509392505050565b600082601f830112620001db57620001da62000077565b5b8151620001ed84826020860162000178565b91505092915050565b6000806040838503121562000210576200020f6200006d565b5b600083015167ffffffffffffffff81111562000231576200023062000072565b5b6200023f85828601620001c3565b925050602083015167ffffffffffffffff81111562000263576200026262000072565b5b6200027185828601620001c3565b9150509250929050565b600081519050919050565b7f4e487b7100000000000000000000000000000000000000000000000000000000600052602260045260246000fd5b60006002820490506001821680620002ce57607f821691505b602082108103620002e457620002e362000286565b5b50919050565b60008190508160005260206000209050919050565b60006020601f8301049050919050565b600082821b905092915050565b6000600883026200034e7fffffffffffffffffffffffffffffffffffffffffffffffffffffffffffffffff826200030f565b6200035a86836200030f565b95508019841693508086168417925050509392505050565b6000819050919050565b6000819050919050565b6000620003a7620003a16200039b8462000372565b6200037c565b62000372565b9050919050565b6000819050919050565b620003c38362000386565b620003db620003d282620003ae565b8484546200031c565b825550505050565b600090565b620003f2620003e3565b620003ff818484620003b8565b505050565b5b8181101562000427576200041b600082620003e8565b60018101905062000405565b5050565b601f82111562000476576200044081620002ea565b6200044b84620002ff565b810160208510156200045b578190505b620004736200046a85620002ff565b83018262000404565b50505b505050565b600082821c905092915050565b60006200049b600019846008026200047b565b1980831691505092915050565b6000620004b6838362000488565b9150826002028217905092915050565b620004d1826200027b565b67ffffffffffffffff811115620004ed57620004ec62000092565b5b620004f98254620002b5565b620005068282856200042b565b600060209050601f8311600181146200053e576000841562000529578287015190505b620005358582620004a8565b865550620005a5565b601f1984166200054e86620002ea565b60005b82811015620005785784890151825560018201915060208501945060208101905062000551565b8683101562000598578489015162000594601f89168262000488565b8355505b6001600288020188555050505b505050505050565b610f1680620005bd6000396000f3fe608060405234801561001057600080fd5b506004361061009d5760003560e01c8063b103030b11610066578063b103030b14610144578063e16d751714610174578063e2e7e963146101a4578063e6f091f9146101c0578063e9896cae146101f05761009d565b8062a3d8cb146100a257806348a46bd3146100be5780634c8d8232146100ee578063707824831461010a5780637fb6c4fa14610126575b600080fd5b6100bc60048036038101906100b79190610afd565b61020e565b005b6100d860048036038101906100d39190610afd565b610349565b6040516100e59190610b45565b60405180910390f35b61010860048036038101906101039190610afd565b6103f7565b005b610124600480360381019061011f9190610afd565b610587565b005b61012e6106c2565b60405161013b9190610bf0565b60405180910390f35b61015e60048036038101906101599190610c48565b610750565b60405161016b9190610c84565b60405180910390f35b61018e60048036038101906101899190610c48565b61078f565b60405161019b9190610c84565b60405180910390f35b6101be60048036038101906101b99190610afd565b6107ce565b005b6101da60048036038101906101d59190610afd565b61095e565b6040516101e79190610b45565b60405180910390f35b6101f8610a0c565b6040516102059190610bf0565b60405180910390f35b61021781610349565b15610257576040517f08c379a000000000000000000000000000000000000000000000000000000000815260040161024e90610ceb565b60405180910390fd5b6102608161095e565b156102a0576040517f08c379a000000000000000000000000000000000000000000000000000000000815260040161029790610d57565b60405180910390fd5b6003819080600181540180825580915050600190039060005260206000200160009091909190916101000a81548173ffffffffffffffffffffffffffffffffffffffff021916908373ffffffffffffffffffffffffffffffffffffffff1602179055508073ffffffffffffffffffffffffffffffffffffffff167faf77f8960cf590e245ec8b6d41c193a5dcacad8986ae4eb57ac9e5be7b6af03160405160405180910390a250565b600080600090505b6003805490508110156103ec578273ffffffffffffffffffffffffffffffffffffffff166003828154811061038957610388610d77565b5b9060005260206000200160009054906101000a900473ffffffffffffffffffffffffffffffffffffffff1673ffffffffffffffffffffffffffffffffffffffff16036103d95760019150506103f2565b80806103e490610dd5565b915050610351565b50600090505b919050565b60005b600380549050811015610583578173ffffffffffffffffffffffffffffffffffffffff166003828154811061043257610431610d77565b5b9060005260206000200160009054906101000a900473ffffffffffffffffffffffffffffffffffffffff1673ffffffffffffffffffffffffffffffffffffffff1603610570576003600160038054905061048c9190610e1d565b8154811061049d5761049c610d77565b5b9060005260206000200160009054906101000a900473ffffffffffffffffffffffffffffffffffffffff16600382815481106104dc576104db610d77565b5b9060005260206000200160006101000a81548173ffffffffffffffffffffffffffffffffffffffff021916908373ffffffffffffffffffffffffffffffffffffffff160217905550600380548061053657610535610e51565b5b6001900381819060005260206000200160006101000a81549073ffffffffffffffffffffffffffffffffffffffff02191690559055610583565b808061057b90610dd5565b9150506103fa565b5050565b6105908161095e565b156105d0576040517f08c379a00000000000000000000000000000000000000000000000000000000081526004016105c790610d57565b60405180910390fd5b6105d981610349565b15610619576040517f08c379a000000000000000000000000000000000000000000000000000000000815260040161061090610ceb565b60405180910390fd5b6002819080600181540180825580915050600190039060005260206000200160009091909190916101000a81548173ffffffffffffffffffffffffffffffffffffffff021916908373ffffffffffffffffffffffffffffffffffffffff1602179055508073ffffffffffffffffffffffffffffffffffffffff167f2e7bcc1a1a1c1bea0ff9a677c29b43662d6560afbebd99c213389fc15a6279d260405160405180910390a250565b600180546106cf90610eaf565b80601f01602080910402602001604051908101604052809291908181526020018280546106fb90610eaf565b80156107485780601f1061071d57610100808354040283529160200191610748565b820191906000526020600020905b81548152906001019060200180831161072b57829003601f168201915b505050505081565b6002818154811061076057600080fd5b906000526020600020016000915054906101000a900473ffffffffffffffffffffffffffffffffffffffff1681565b6003818154811061079f57600080fd5b906000526020600020016000915054906101000a900473ffffffffffffffffffffffffffffffffffffffff1681565b60005b60028054905081101561095a578173ffffffffffffffffffffffffffffffffffffffff166002828154811061080957610808610d77565b5b9060005260206000200160009054906101000a900473ffffffffffffffffffffffffffffffffffffffff1673ffffffffffffffffffffffffffffffffffffffff160361094757600260016002805490506108639190610e1d565b8154811061087457610873610d77565b5b9060005260206000200160009054906101000a900473ffffffffffffffffffffffffffffffffffffffff16600282815481106108b3576108b2610d77565b5b9060005260206000200160006101000a81548173ffffffffffffffffffffffffffffffffffffffff021916908373ffffffffffffffffffffffffffffffffffffffff160217905550600280548061090d5761090c610e51565b5b6001900381819060005260206000200160006101000a81549073ffffffffffffffffffffffffffffffffffffffff0219169055905561095a565b808061095290610dd5565b9150506107d1565b5050565b600080600090505b600280549050811015610a01578273ffffffffffffffffffffffffffffffffffffffff166002828154811061099e5761099d610d77565b5b9060005260206000200160009054906101000a900473ffffffffffffffffffffffffffffffffffffffff1673ffffffffffffffffffffffffffffffffffffffff16036109ee576001915050610a07565b80806109f990610dd5565b915050610966565b50600090505b919050565b60008054610a1990610eaf565b80601f0160208091040260200160405190810160405280929190818152602001828054610a4590610eaf565b8015610a925780601f10610a6757610100808354040283529160200191610a92565b820191906000526020600020905b815481529060010190602001808311610a7557829003601f168201915b505050505081565b600080fd5b600073ffffffffffffffffffffffffffffffffffffffff82169050919050565b6000610aca82610a9f565b9050919050565b610ada81610abf565b8114610ae557600080fd5b50565b600081359050610af781610ad1565b92915050565b600060208284031215610b1357610b12610a9a565b5b6000610b2184828501610ae8565b91505092915050565b60008115159050919050565b610b3f81610b2a565b82525050565b6000602082019050610b5a6000830184610b36565b92915050565b600081519050919050565b600082825260208201905092915050565b60005b83811015610b9a578082015181840152602081019050610b7f565b60008484015250505050565b6000601f19601f8301169050919050565b6000610bc282610b60565b610bcc8185610b6b565b9350610bdc818560208601610b7c565b610be581610ba6565b840191505092915050565b60006020820190508181036000830152610c0a8184610bb7565b905092915050565b6000819050919050565b610c2581610c12565b8114610c3057600080fd5b50565b600081359050610c4281610c1c565b92915050565b600060208284031215610c5e57610c5d610a9a565b5b6000610c6c84828501610c33565b91505092915050565b610c7e81610abf565b82525050565b6000602082019050610c996000830184610c75565b92915050565b7f416c72656164792072656a656374656400000000000000000000000000000000600082015250565b6000610cd5601083610b6b565b9150610ce082610c9f565b602082019050919050565b60006020820190508181036000830152610d0481610cc8565b9050919050565b7f416c726561647920616363657074656400000000000000000000000000000000600082015250565b6000610d41601083610b6b565b9150610d4c82610d0b565b602082019050919050565b60006020820190508181036000830152610d7081610d34565b9050919050565b7f4e487b7100000000000000000000000000000000000000000000000000000000600052603260045260246000fd5b7f4e487b7100000000000000000000000000000000000000000000000000000000600052601160045260246000fd5b6000610de082610c12565b91507fffffffffffffffffffffffffffffffffffffffffffffffffffffffffffffffff8203610e1257610e11610da6565b5b600182019050919050565b6000610e2882610c12565b9150610e3383610c12565b9250828203905081811115610e4b57610e4a610da6565b5b92915050565b7f4e487b7100000000000000000000000000000000000000000000000000000000600052603160045260246000fd5b7f4e487b7100000000000000000000000000000000000000000000000000000000600052602260045260246000fd5b60006002820490506001821680610ec757607f821691505b602082108103610eda57610ed9610e80565b5b5091905056fea26469706673582212204a7a8e13ff9b010241e5b2468a37132bdc9764c40903f1d5449c93493d2c4be964736f6c63430008130033",
  "immutableReferences": {},
  "source": "// SPDX-License-Identifier: MIT\npragma solidity ^0.8.0;\n\ncontract Image {\n    string public ipfsId;\n    string public fileName;\n    \n    address[] public acceptedAddresses;\n    address[] public rejectedAddresses;\n\n    event Accepted(address indexed voter);\n    event Rejected(address indexed voter);\n\n    constructor(string memory _ipfsId, string memory _fileName) {\n        ipfsId = _ipfsId;\n        fileName = _fileName;\n    }\n\n    function addToAccepted(address newAddress) public {\n        require(!isAccepted(newAddress), \"Already accepted\");\n        require(!isRejected(newAddress), \"Already rejected\");\n        acceptedAddresses.push(newAddress);\n        emit Accepted(newAddress);\n    }\n\n    function addToRejected(address newAddress) public {\n        require(!isRejected(newAddress), \"Already rejected\");\n        require(!isAccepted(newAddress), \"Already accepted\");\n        rejectedAddresses.push(newAddress);\n        emit Rejected(newAddress);\n    }\n\n    function removeFromAccepted(address addressToRemove) public {\n        for (uint i = 0; i < acceptedAddresses.length; i++) {\n            if (acceptedAddresses[i] == addressToRemove) {\n                acceptedAddresses[i] = acceptedAddresses[acceptedAddresses.length - 1];\n                acceptedAddresses.pop();\n                break;\n            }\n        }\n    }\n\n    function removeFromRejected(address addressToRemove) public {\n        for (uint i = 0; i < rejectedAddresses.length; i++) {\n            if (rejectedAddresses[i] == addressToRemove) {\n                rejectedAddresses[i] = rejectedAddresses[rejectedAddresses.length - 1];\n                rejectedAddresses.pop();\n                break;\n            }\n        }\n    }\n\n    function isAccepted(address queryAddress) public view returns (bool) {\n        for (uint i = 0; i < acceptedAddresses.length; i++) {\n            if (acceptedAddresses[i] == queryAddress) {\n                return true;\n            }\n        }\n        return false;\n    }\n\n    function isRejected(address queryAddress) public view returns (bool) {\n        for (uint i = 0; i < rejectedAddresses.length; i++) {\n            if (rejectedAddresses[i] == queryAddress) {\n                return true;\n            }\n        }\n        return false;\n    }\n}\n",
  "sourcePath": "/home/alpha/Code/Hackathon/Cognition/blockchain/contracts/Image.sol",
  "compiler": {
    "name": "solc",
    "version": "0.8.19+commit.7dd6d404.Emscripten.clang"
  },
  "schemaVersion": "3.4.13",
  "updatedAt": "2023-05-06T20:46:16.251Z",
  "networkType": "ethereum",
  "devdoc": {
    "kind": "dev",
    "methods": {},
    "version": 1
  },
  "userdoc": {
    "kind": "user",
    "methods": {},
    "version": 1
  }
}