{
  "contractName": "MediaStake",
  "abi": [
    {
      "inputs": [
        {
          "internalType": "string",
          "name": "_mediaHash",
          "type": "string"
        }
      ],
      "name": "uploadMedia",
      "outputs": [],
      "stateMutability": "payable",
      "type": "function"
    },
    {
      "inputs": [
        {
          "internalType": "string",
          "name": "_mediaHash",
          "type": "string"
        }
      ],
      "name": "claimCopyright",
      "outputs": [],
      "stateMutability": "payable",
      "type": "function"
    }
  ],
  "bytecode": "0x608060405234801561001057600080fd5b50610c4e806100206000396000f3fe6080604052600436106100295760003560e01c806372d0935a1461002e578063860a45191461004a575b600080fd5b61004860048036038101906100439190610776565b610066565b005b610064600480360381019061005f9190610776565b61051d565b005b600073ffffffffffffffffffffffffffffffffffffffff1660008260405161008e9190610830565b908152602001604051809103902060000160009054906101000a900473ffffffffffffffffffffffffffffffffffffffff1673ffffffffffffffffffffffffffffffffffffffff1603610116576040517f08c379a000000000000000000000000000000000000000000000000000000000815260040161010d906108a4565b60405180910390fd5b60003411610159576040517f08c379a000000000000000000000000000000000000000000000000000000000815260040161015090610910565b60405180910390fd5b3460008260405161016a9190610830565b90815260200160405180910390206002015411156101ce573373ffffffffffffffffffffffffffffffffffffffff166108fc349081150290604051600060405180830381858888f193505050501580156101c8573d6000803e3d6000fd5b5061051a565b346000826040516101df9190610830565b908152602001604051809103902060020154101561035e576000816040516102079190610830565b908152602001604051809103902060000160009054906101000a900473ffffffffffffffffffffffffffffffffffffffff1673ffffffffffffffffffffffffffffffffffffffff166108fc6000836040516102629190610830565b9081526020016040518091039020600201549081150290604051600060405180830381858888f1935050505015801561029f573d6000803e3d6000fd5b5060405180606001604052803373ffffffffffffffffffffffffffffffffffffffff168152602001828152602001348152506000826040516102e19190610830565b908152602001604051809103902060008201518160000160006101000a81548173ffffffffffffffffffffffffffffffffffffffff021916908373ffffffffffffffffffffffffffffffffffffffff160217905550602082015181600101908161034b9190610b46565b5060408201518160020155905050610519565b3373ffffffffffffffffffffffffffffffffffffffff166108fc349081150290604051600060405180830381858888f193505050501580156103a4573d6000803e3d6000fd5b506000816040516103b59190610830565b908152602001604051809103902060000160009054906101000a900473ffffffffffffffffffffffffffffffffffffffff1673ffffffffffffffffffffffffffffffffffffffff166108fc6000836040516104109190610830565b9081526020016040518091039020600201549081150290604051600060405180830381858888f1935050505015801561044d573d6000803e3d6000fd5b506040518060600160405280600073ffffffffffffffffffffffffffffffffffffffff16815260200160405180602001604052806000815250815260200160008152506000826040516104a09190610830565b908152602001604051809103902060008201518160000160006101000a81548173ffffffffffffffffffffffffffffffffffffffff021916908373ffffffffffffffffffffffffffffffffffffffff160217905550602082015181600101908161050a9190610b46565b50604082015181600201559050505b5b50565b60003411610560576040517f08c379a000000000000000000000000000000000000000000000000000000000815260040161055790610910565b60405180910390fd5b60405180606001604052803373ffffffffffffffffffffffffffffffffffffffff168152602001828152602001348152506000826040516105a19190610830565b908152602001604051809103902060008201518160000160006101000a81548173ffffffffffffffffffffffffffffffffffffffff021916908373ffffffffffffffffffffffffffffffffffffffff160217905550602082015181600101908161060b9190610b46565b506040820151816002015590505050565b6000604051905090565b600080fd5b600080fd5b600080fd5b600080fd5b6000601f19601f8301169050919050565b7f4e487b7100000000000000000000000000000000000000000000000000000000600052604160045260246000fd5b6106838261063a565b810181811067ffffffffffffffff821117156106a2576106a161064b565b5b80604052505050565b60006106b561061c565b90506106c1828261067a565b919050565b600067ffffffffffffffff8211156106e1576106e061064b565b5b6106ea8261063a565b9050602081019050919050565b82818337600083830152505050565b6000610719610714846106c6565b6106ab565b90508281526020810184848401111561073557610734610635565b5b6107408482856106f7565b509392505050565b600082601f83011261075d5761075c610630565b5b813561076d848260208601610706565b91505092915050565b60006020828403121561078c5761078b610626565b5b600082013567ffffffffffffffff8111156107aa576107a961062b565b5b6107b684828501610748565b91505092915050565b600081519050919050565b600081905092915050565b60005b838110156107f35780820151818401526020810190506107d8565b60008484015250505050565b600061080a826107bf565b61081481856107ca565b93506108248185602086016107d5565b80840191505092915050565b600061083c82846107ff565b915081905092915050565b600082825260208201905092915050565b7f4d6564696120646f6573206e6f74206578697374000000000000000000000000600082015250565b600061088e601483610847565b915061089982610858565b602082019050919050565b600060208201905081810360008301526108bd81610881565b9050919050565b7f496e76616c6964207374616b6520616d6f756e74000000000000000000000000600082015250565b60006108fa601483610847565b9150610905826108c4565b602082019050919050565b60006020820190508181036000830152610929816108ed565b9050919050565b7f4e487b7100000000000000000000000000000000000000000000000000000000600052602260045260246000fd5b6000600282049050600182168061097757607f821691505b60208210810361098a57610989610930565b5b50919050565b60008190508160005260206000209050919050565b60006020601f8301049050919050565b600082821b905092915050565b6000600883026109f27fffffffffffffffffffffffffffffffffffffffffffffffffffffffffffffffff826109b5565b6109fc86836109b5565b95508019841693508086168417925050509392505050565b6000819050919050565b6000819050919050565b6000610a43610a3e610a3984610a14565b610a1e565b610a14565b9050919050565b6000819050919050565b610a5d83610a28565b610a71610a6982610a4a565b8484546109c2565b825550505050565b600090565b610a86610a79565b610a91818484610a54565b505050565b5b81811015610ab557610aaa600082610a7e565b600181019050610a97565b5050565b601f821115610afa57610acb81610990565b610ad4846109a5565b81016020851015610ae3578190505b610af7610aef856109a5565b830182610a96565b50505b505050565b600082821c905092915050565b6000610b1d60001984600802610aff565b1980831691505092915050565b6000610b368383610b0c565b9150826002028217905092915050565b610b4f826107bf565b67ffffffffffffffff811115610b6857610b6761064b565b5b610b72825461095f565b610b7d828285610ab9565b600060209050601f831160018114610bb05760008415610b9e578287015190505b610ba88582610b2a565b865550610c10565b601f198416610bbe86610990565b60005b82811015610be657848901518255600182019150602085019450602081019050610bc1565b86831015610c035784890151610bff601f891682610b0c565b8355505b6001600288020188555050505b50505050505056fea2646970667358221220f47874ab241cd8ec6e905a017b4f90aa97981e88fcc6129b48a1b23094ad945064736f6c63430008130033",
  "immutableReferences": {},
  "source": "pragma solidity ^0.8.0;\n\ncontract MediaStake {\n    struct Media {\n        address uploader;\n        string mediaHash;\n        uint256 stake;\n    }\n\n    mapping (string => Media) private media;\n\n    function uploadMedia(string memory _mediaHash) public payable {\n        require(msg.value > 0, \"Invalid stake amount\");\n        media[_mediaHash] = Media(msg.sender, _mediaHash, msg.value);\n    }\n\n    function claimCopyright(string memory _mediaHash) public payable {\n        require(media[_mediaHash].uploader != address(0), \"Media does not exist\");\n        require(msg.value > 0, \"Invalid stake amount\");\n        if (media[_mediaHash].stake > msg.value) {\n            payable(msg.sender).transfer(msg.value);\n        } else if (media[_mediaHash].stake < msg.value) {\n            payable(media[_mediaHash].uploader).transfer(media[_mediaHash].stake);\n            media[_mediaHash] = Media(msg.sender, _mediaHash, msg.value);\n        } else {\n            payable(msg.sender).transfer(msg.value);\n            payable(media[_mediaHash].uploader).transfer(media[_mediaHash].stake);\n            media[_mediaHash] = Media(address(0), \"\", 0);\n        }\n    }\n}\n",
  "sourcePath": "/home/alpha/Code/Hackathon/Cognition/blockchain/contracts/mediaStake.sol",
  "compiler": {
    "name": "solc",
    "version": "0.8.19+commit.7dd6d404.Emscripten.clang"
  },
  "schemaVersion": "3.4.13",
  "updatedAt": "2023-05-06T08:39:32.590Z",
  "devdoc": {
    "kind": "dev",
    "methods": {},
    "version": 1
  },
  "userdoc": {
    "kind": "user",
    "methods": {},
    "version": 1
  }
}