{
  "contractName": "AllInOneImage",
  "abi": [
    {
      "inputs": [],
      "stateMutability": "nonpayable",
      "type": "constructor"
    },
    {
      "anonymous": false,
      "inputs": [
        {
          "indexed": false,
          "internalType": "string",
          "name": "ipfsId",
          "type": "string"
        },
        {
          "indexed": false,
          "internalType": "string",
          "name": "fileName",
          "type": "string"
        }
      ],
      "name": "ImageCreated",
      "type": "event"
    },
    {
      "anonymous": false,
      "inputs": [
        {
          "indexed": false,
          "internalType": "string",
          "name": "ipfsId",
          "type": "string"
        },
        {
          "indexed": false,
          "internalType": "string",
          "name": "fileName",
          "type": "string"
        }
      ],
      "name": "VoteStarted",
      "type": "event"
    },
    {
      "inputs": [],
      "name": "currentCount",
      "outputs": [
        {
          "internalType": "uint256",
          "name": "",
          "type": "uint256"
        }
      ],
      "stateMutability": "view",
      "type": "function",
      "constant": true
    },
    {
      "inputs": [
        {
          "internalType": "uint256",
          "name": "",
          "type": "uint256"
        }
      ],
      "name": "images",
      "outputs": [
        {
          "internalType": "string",
          "name": "ipfsId",
          "type": "string"
        },
        {
          "internalType": "string",
          "name": "fileName",
          "type": "string"
        },
        {
          "internalType": "address",
          "name": "owner",
          "type": "address"
        },
        {
          "internalType": "bool",
          "name": "confirmed",
          "type": "bool"
        },
        {
          "internalType": "uint256",
          "name": "yesCount",
          "type": "uint256"
        },
        {
          "internalType": "uint256",
          "name": "noCount",
          "type": "uint256"
        }
      ],
      "stateMutability": "view",
      "type": "function",
      "constant": true
    },
    {
      "inputs": [
        {
          "internalType": "string",
          "name": "_ipfs",
          "type": "string"
        },
        {
          "internalType": "string",
          "name": "fileName",
          "type": "string"
        },
        {
          "internalType": "bool",
          "name": "confirmed",
          "type": "bool"
        }
      ],
      "name": "addImage",
      "outputs": [],
      "stateMutability": "payable",
      "type": "function",
      "payable": true
    }
  ],
  "bytecode": "0x608060405234801561001057600080fd5b506000600181905550610b8b806100286000396000f3fe6080604052600436106100345760003560e01c80638485648214610039578063c732d2011461007b578063e8eaf819146100a6575b600080fd5b34801561004557600080fd5b50610060600480360381019061005b919061042b565b6100c2565b60405161007296959493929190610553565b60405180910390f35b34801561008757600080fd5b5061009061023b565b60405161009d91906105c2565b60405180910390f35b6100c060048036038101906100bb919061073e565b610241565b005b60006020528060005260406000206000915090508060000180546100e5906107f8565b80601f0160208091040260200160405190810160405280929190818152602001828054610111906107f8565b801561015e5780601f106101335761010080835404028352916020019161015e565b820191906000526020600020905b81548152906001019060200180831161014157829003601f168201915b505050505090806001018054610173906107f8565b80601f016020809104026020016040519081016040528092919081815260200182805461019f906107f8565b80156101ec5780601f106101c1576101008083540402835291602001916101ec565b820191906000526020600020905b8154815290600101906020018083116101cf57829003601f168201915b5050505050908060020160009054906101000a900473ffffffffffffffffffffffffffffffffffffffff16908060020160149054906101000a900460ff16908060030154908060040154905086565b60015481565b6040518060c001604052808481526020018381526020013373ffffffffffffffffffffffffffffffffffffffff1681526020018215158152602001600081526020016000815250600080600154815260200190815260200160002060008201518160000190816102b191906109d5565b5060208201518160010190816102c791906109d5565b5060408201518160020160006101000a81548173ffffffffffffffffffffffffffffffffffffffff021916908373ffffffffffffffffffffffffffffffffffffffff16021790555060608201518160020160146101000a81548160ff0219169083151502179055506080820151816003015560a08201518160040155905050801561038a577f55bdc00c902b13a24452406682fb0d79eb0fa766256f098b66ba404b3c5375b6838360405161037d929190610aa7565b60405180910390a16103c4565b7f26a77a11ff9e49381e93b76eb1fa9ff3d5ae7feba03f7dd5a2c628865f9e638a83836040516103bb929190610aa7565b60405180910390a15b600160008154809291906103d790610b0d565b9190505550505050565b6000604051905090565b600080fd5b600080fd5b6000819050919050565b610408816103f5565b811461041357600080fd5b50565b600081359050610425816103ff565b92915050565b600060208284031215610441576104406103eb565b5b600061044f84828501610416565b91505092915050565b600081519050919050565b600082825260208201905092915050565b60005b83811015610492578082015181840152602081019050610477565b60008484015250505050565b6000601f19601f8301169050919050565b60006104ba82610458565b6104c48185610463565b93506104d4818560208601610474565b6104dd8161049e565b840191505092915050565b600073ffffffffffffffffffffffffffffffffffffffff82169050919050565b6000610513826104e8565b9050919050565b61052381610508565b82525050565b60008115159050919050565b61053e81610529565b82525050565b61054d816103f5565b82525050565b600060c082019050818103600083015261056d81896104af565b9050818103602083015261058181886104af565b9050610590604083018761051a565b61059d6060830186610535565b6105aa6080830185610544565b6105b760a0830184610544565b979650505050505050565b60006020820190506105d76000830184610544565b92915050565b600080fd5b600080fd5b7f4e487b7100000000000000000000000000000000000000000000000000000000600052604160045260246000fd5b61061f8261049e565b810181811067ffffffffffffffff8211171561063e5761063d6105e7565b5b80604052505050565b60006106516103e1565b905061065d8282610616565b919050565b600067ffffffffffffffff82111561067d5761067c6105e7565b5b6106868261049e565b9050602081019050919050565b82818337600083830152505050565b60006106b56106b084610662565b610647565b9050828152602081018484840111156106d1576106d06105e2565b5b6106dc848285610693565b509392505050565b600082601f8301126106f9576106f86105dd565b5b81356107098482602086016106a2565b91505092915050565b61071b81610529565b811461072657600080fd5b50565b60008135905061073881610712565b92915050565b600080600060608486031215610757576107566103eb565b5b600084013567ffffffffffffffff811115610775576107746103f0565b5b610781868287016106e4565b935050602084013567ffffffffffffffff8111156107a2576107a16103f0565b5b6107ae868287016106e4565b92505060406107bf86828701610729565b9150509250925092565b7f4e487b7100000000000000000000000000000000000000000000000000000000600052602260045260246000fd5b6000600282049050600182168061081057607f821691505b602082108103610823576108226107c9565b5b50919050565b60008190508160005260206000209050919050565b60006020601f8301049050919050565b600082821b905092915050565b60006008830261088b7fffffffffffffffffffffffffffffffffffffffffffffffffffffffffffffffff8261084e565b610895868361084e565b95508019841693508086168417925050509392505050565b6000819050919050565b60006108d26108cd6108c8846103f5565b6108ad565b6103f5565b9050919050565b6000819050919050565b6108ec836108b7565b6109006108f8826108d9565b84845461085b565b825550505050565b600090565b610915610908565b6109208184846108e3565b505050565b5b818110156109445761093960008261090d565b600181019050610926565b5050565b601f8211156109895761095a81610829565b6109638461083e565b81016020851015610972578190505b61098661097e8561083e565b830182610925565b50505b505050565b600082821c905092915050565b60006109ac6000198460080261098e565b1980831691505092915050565b60006109c5838361099b565b9150826002028217905092915050565b6109de82610458565b67ffffffffffffffff8111156109f7576109f66105e7565b5b610a0182546107f8565b610a0c828285610948565b600060209050601f831160018114610a3f5760008415610a2d578287015190505b610a3785826109b9565b865550610a9f565b601f198416610a4d86610829565b60005b82811015610a7557848901518255600182019150602085019450602081019050610a50565b86831015610a925784890151610a8e601f89168261099b565b8355505b6001600288020188555050505b505050505050565b60006040820190508181036000830152610ac181856104af565b90508181036020830152610ad581846104af565b90509392505050565b7f4e487b7100000000000000000000000000000000000000000000000000000000600052601160045260246000fd5b6000610b18826103f5565b91507fffffffffffffffffffffffffffffffffffffffffffffffffffffffffffffffff8203610b4a57610b49610ade565b5b60018201905091905056fea264697066735822122091e5a20bf16991e49d66ba8f867b5fda0e9d88f3ef44c9f0e6746757daa94d3664736f6c63430008130033",
  "immutableReferences": {},
  "source": "// SPDX-License-Identifier: MIT\npragma solidity ^0.8.0;\n\ncontract AllInOneImage{\n\n    struct Image {\n        string ipfsId;\n        string fileName;\n        address owner;\n        bool confirmed;\n\n        uint yesCount;\n        uint noCount;\n    }\n\n    event ImageCreated (\n        string ipfsId,\n        string fileName\n    );\n\n    event VoteStarted(\n        string ipfsId,\n        string fileName\n    );\n\n    mapping(uint => Image) public images;\n\n    uint public currentCount;\n\n    constructor(){\n        currentCount = 0;\n    }\n\n    function addImage(string memory _ipfs, string memory fileName, bool confirmed) public payable {\n\n        images[currentCount] = Image(_ipfs, fileName, msg.sender, confirmed, 0, 0);\n\n        if (confirmed){\n            emit ImageCreated(_ipfs, fileName);\n        }else {\n            emit VoteStarted(_ipfs, fileName);\n        }\n\n        currentCount++;\n\n    }\n\n\n\n}\n",
  "sourcePath": "/home/alpha/Code/Hackathon/Cognition/blockchain/contracts/AllInOneImage.sol",
  "compiler": {
    "name": "solc",
    "version": "0.8.19+commit.7dd6d404.Emscripten.clang"
  },
  "schemaVersion": "3.4.13",
  "updatedAt": "2023-05-06T20:46:16.574Z",
  "networkType": "ethereum",
  "devdoc": {
    "kind": "dev",
    "methods": {},
    "version": 1
  },
  "userdoc": {
    "kind": "user",
    "methods": {},
    "version": 1
  }
}