{
  "contractName": "AllInOneImage",
  "abi": [
    {
      "inputs": [],
      "stateMutability": "nonpayable",
      "type": "constructor"
    },
    {
      "anonymous": false,
      "inputs": [
        {
          "indexed": false,
          "internalType": "string",
          "name": "ipfsId",
          "type": "string"
        },
        {
          "indexed": false,
          "internalType": "string",
          "name": "fileName",
          "type": "string"
        }
      ],
      "name": "ImageCreated",
      "type": "event"
    },
    {
      "anonymous": false,
      "inputs": [
        {
          "indexed": false,
          "internalType": "string",
          "name": "ipfsId",
          "type": "string"
        },
        {
          "indexed": false,
          "internalType": "string",
          "name": "fileName",
          "type": "string"
        }
      ],
      "name": "VoteStarted",
      "type": "event"
    },
    {
      "inputs": [],
      "name": "currentCount",
      "outputs": [
        {
          "internalType": "uint256",
          "name": "",
          "type": "uint256"
        }
      ],
      "stateMutability": "view",
      "type": "function",
      "constant": true
    },
    {
      "inputs": [
        {
          "internalType": "uint256",
          "name": "",
          "type": "uint256"
        }
      ],
      "name": "images",
      "outputs": [
        {
          "internalType": "string",
          "name": "ipfsId",
          "type": "string"
        },
        {
          "internalType": "string",
          "name": "fileName",
          "type": "string"
        },
        {
          "internalType": "address",
          "name": "owner",
          "type": "address"
        },
        {
          "internalType": "bool",
          "name": "confirmed",
          "type": "bool"
        },
        {
          "internalType": "uint256",
          "name": "yesCount",
          "type": "uint256"
        },
        {
          "internalType": "uint256",
          "name": "noCount",
          "type": "uint256"
        }
      ],
      "stateMutability": "view",
      "type": "function",
      "constant": true
    },
    {
      "inputs": [
        {
          "internalType": "string",
          "name": "_ipfs",
          "type": "string"
        },
        {
          "internalType": "string",
          "name": "fileName",
          "type": "string"
        },
        {
          "internalType": "bool",
          "name": "confirmed",
          "type": "bool"
        }
      ],
      "name": "addImage",
      "outputs": [],
      "stateMutability": "payable",
      "type": "function",
      "payable": true
    }
  ],
  "bytecode": "0x608060405234801561001057600080fd5b506000600181905550610afc806100286000396000f3fe6080604052600436106100345760003560e01c80638485648214610039578063c732d2011461007b578063e8eaf819146100a6575b600080fd5b34801561004557600080fd5b50610060600480360381019061005b9190610413565b6100c2565b6040516100729695949392919061053b565b60405180910390f35b34801561008757600080fd5b5061009061023b565b60405161009d91906105aa565b60405180910390f35b6100c060048036038101906100bb9190610726565b610241565b005b60006020528060005260406000206000915090508060000180546100e5906107e0565b80601f0160208091040260200160405190810160405280929190818152602001828054610111906107e0565b801561015e5780601f106101335761010080835404028352916020019161015e565b820191906000526020600020905b81548152906001019060200180831161014157829003601f168201915b505050505090806001018054610173906107e0565b80601f016020809104026020016040519081016040528092919081815260200182805461019f906107e0565b80156101ec5780601f106101c1576101008083540402835291602001916101ec565b820191906000526020600020905b8154815290600101906020018083116101cf57829003601f168201915b5050505050908060020160009054906101000a900473ffffffffffffffffffffffffffffffffffffffff16908060020160149054906101000a900460ff16908060030154908060040154905086565b60015481565b6040518060c001604052808481526020018381526020013373ffffffffffffffffffffffffffffffffffffffff1681526020018215158152602001600081526020016000815250600080600154815260200190815260200160002060008201518160000190816102b191906109bd565b5060208201518160010190816102c791906109bd565b5060408201518160020160006101000a81548173ffffffffffffffffffffffffffffffffffffffff021916908373ffffffffffffffffffffffffffffffffffffffff16021790555060608201518160020160146101000a81548160ff0219169083151502179055506080820151816003015560a08201518160040155905050801561038a577f55bdc00c902b13a24452406682fb0d79eb0fa766256f098b66ba404b3c5375b6838360405161037d929190610a8f565b60405180910390a16103c4565b7f26a77a11ff9e49381e93b76eb1fa9ff3d5ae7feba03f7dd5a2c628865f9e638a83836040516103bb929190610a8f565b60405180910390a15b505050565b6000604051905090565b600080fd5b600080fd5b6000819050919050565b6103f0816103dd565b81146103fb57600080fd5b50565b60008135905061040d816103e7565b92915050565b600060208284031215610429576104286103d3565b5b6000610437848285016103fe565b91505092915050565b600081519050919050565b600082825260208201905092915050565b60005b8381101561047a57808201518184015260208101905061045f565b60008484015250505050565b6000601f19601f8301169050919050565b60006104a282610440565b6104ac818561044b565b93506104bc81856020860161045c565b6104c581610486565b840191505092915050565b600073ffffffffffffffffffffffffffffffffffffffff82169050919050565b60006104fb826104d0565b9050919050565b61050b816104f0565b82525050565b60008115159050919050565b61052681610511565b82525050565b610535816103dd565b82525050565b600060c08201905081810360008301526105558189610497565b905081810360208301526105698188610497565b90506105786040830187610502565b610585606083018661051d565b610592608083018561052c565b61059f60a083018461052c565b979650505050505050565b60006020820190506105bf600083018461052c565b92915050565b600080fd5b600080fd5b7f4e487b7100000000000000000000000000000000000000000000000000000000600052604160045260246000fd5b61060782610486565b810181811067ffffffffffffffff82111715610626576106256105cf565b5b80604052505050565b60006106396103c9565b905061064582826105fe565b919050565b600067ffffffffffffffff821115610665576106646105cf565b5b61066e82610486565b9050602081019050919050565b82818337600083830152505050565b600061069d6106988461064a565b61062f565b9050828152602081018484840111156106b9576106b86105ca565b5b6106c484828561067b565b509392505050565b600082601f8301126106e1576106e06105c5565b5b81356106f184826020860161068a565b91505092915050565b61070381610511565b811461070e57600080fd5b50565b600081359050610720816106fa565b92915050565b60008060006060848603121561073f5761073e6103d3565b5b600084013567ffffffffffffffff81111561075d5761075c6103d8565b5b610769868287016106cc565b935050602084013567ffffffffffffffff81111561078a576107896103d8565b5b610796868287016106cc565b92505060406107a786828701610711565b9150509250925092565b7f4e487b7100000000000000000000000000000000000000000000000000000000600052602260045260246000fd5b600060028204905060018216806107f857607f821691505b60208210810361080b5761080a6107b1565b5b50919050565b60008190508160005260206000209050919050565b60006020601f8301049050919050565b600082821b905092915050565b6000600883026108737fffffffffffffffffffffffffffffffffffffffffffffffffffffffffffffffff82610836565b61087d8683610836565b95508019841693508086168417925050509392505050565b6000819050919050565b60006108ba6108b56108b0846103dd565b610895565b6103dd565b9050919050565b6000819050919050565b6108d48361089f565b6108e86108e0826108c1565b848454610843565b825550505050565b600090565b6108fd6108f0565b6109088184846108cb565b505050565b5b8181101561092c576109216000826108f5565b60018101905061090e565b5050565b601f8211156109715761094281610811565b61094b84610826565b8101602085101561095a578190505b61096e61096685610826565b83018261090d565b50505b505050565b600082821c905092915050565b600061099460001984600802610976565b1980831691505092915050565b60006109ad8383610983565b9150826002028217905092915050565b6109c682610440565b67ffffffffffffffff8111156109df576109de6105cf565b5b6109e982546107e0565b6109f4828285610930565b600060209050601f831160018114610a275760008415610a15578287015190505b610a1f85826109a1565b865550610a87565b601f198416610a3586610811565b60005b82811015610a5d57848901518255600182019150602085019450602081019050610a38565b86831015610a7a5784890151610a76601f891682610983565b8355505b6001600288020188555050505b505050505050565b60006040820190508181036000830152610aa98185610497565b90508181036020830152610abd8184610497565b9050939250505056fea26469706673582212200e6e40a2c7fdbdfd03ca7ac2dc61afa3cb0679785e53de59467e589773d7408464736f6c63430008130033",
  "immutableReferences": {},
  "source": "// SPDX-License-Identifier: MIT\npragma solidity ^0.8.0;\n\ncontract AllInOneImage{\n\n    struct Image {\n        string ipfsId;\n        string fileName;\n        address owner;\n        bool confirmed;\n\n        uint yesCount;\n        uint noCount;\n    }\n\n    event ImageCreated (\n        string ipfsId,\n        string fileName\n    );\n\n    event VoteStarted(\n        string ipfsId,\n        string fileName\n    );\n\n    mapping(uint => Image) public images;\n\n    uint public currentCount;\n\n    constructor(){\n        currentCount = 0;\n    }\n\n    function addImage(string memory _ipfs, string memory fileName, bool confirmed) public payable {\n\n        images[currentCount] = Image(_ipfs, fileName, msg.sender, confirmed, 0, 0);\n\n        if (confirmed){\n            emit ImageCreated(_ipfs, fileName);\n        }else {\n            emit VoteStarted(_ipfs, fileName);\n        }\n\n        \n\n    }\n\n\n\n}\n",
  "sourcePath": "/home/alpha/Code/Hackathon/Cognition/blockchain/contracts/AllInOneImage.sol",
  "compiler": {
    "name": "solc",
    "version": "0.8.19+commit.7dd6d404.Emscripten.clang"
  },
  "schemaVersion": "3.4.13",
  "updatedAt": "2023-05-06T20:07:37.436Z",
  "networkType": "ethereum",
  "devdoc": {
    "kind": "dev",
    "methods": {},
    "version": 1
  },
  "userdoc": {
    "kind": "user",
    "methods": {},
    "version": 1
  }
}