{
  "contractName": "Image",
  "abi": [
    {
      "inputs": [
        {
          "internalType": "string",
          "name": "_ipfsId",
          "type": "string"
        },
        {
          "internalType": "string",
          "name": "_fileName",
          "type": "string"
        }
      ],
      "stateMutability": "nonpayable",
      "type": "constructor"
    },
    {
      "inputs": [
        {
          "internalType": "uint256",
          "name": "",
          "type": "uint256"
        }
      ],
      "name": "acceptedAddresses",
      "outputs": [
        {
          "internalType": "address",
          "name": "",
          "type": "address"
        }
      ],
      "stateMutability": "view",
      "type": "function",
      "constant": true
    },
    {
      "inputs": [],
      "name": "fileName",
      "outputs": [
        {
          "internalType": "string",
          "name": "",
          "type": "string"
        }
      ],
      "stateMutability": "view",
      "type": "function",
      "constant": true
    },
    {
      "inputs": [],
      "name": "ipfsId",
      "outputs": [
        {
          "internalType": "string",
          "name": "",
          "type": "string"
        }
      ],
      "stateMutability": "view",
      "type": "function",
      "constant": true
    },
    {
      "inputs": [
        {
          "internalType": "uint256",
          "name": "",
          "type": "uint256"
        }
      ],
      "name": "rejectedAddresses",
      "outputs": [
        {
          "internalType": "address",
          "name": "",
          "type": "address"
        }
      ],
      "stateMutability": "view",
      "type": "function",
      "constant": true
    },
    {
      "inputs": [
        {
          "internalType": "address",
          "name": "newAddress",
          "type": "address"
        }
      ],
      "name": "addToAccepted",
      "outputs": [],
      "stateMutability": "payable",
      "type": "function",
      "payable": true
    },
    {
      "inputs": [
        {
          "internalType": "address",
          "name": "newAddress",
          "type": "address"
        }
      ],
      "name": "addToRejected",
      "outputs": [],
      "stateMutability": "payable",
      "type": "function",
      "payable": true
    },
    {
      "inputs": [
        {
          "internalType": "address",
          "name": "addressToRemove",
          "type": "address"
        }
      ],
      "name": "removeFromAccepted",
      "outputs": [],
      "stateMutability": "nonpayable",
      "type": "function"
    },
    {
      "inputs": [
        {
          "internalType": "address",
          "name": "addressToRemove",
          "type": "address"
        }
      ],
      "name": "removeFromRejected",
      "outputs": [],
      "stateMutability": "nonpayable",
      "type": "function"
    },
    {
      "inputs": [
        {
          "internalType": "address",
          "name": "queryAddress",
          "type": "address"
        }
      ],
      "name": "isAccepted",
      "outputs": [
        {
          "internalType": "bool",
          "name": "",
          "type": "bool"
        }
      ],
      "stateMutability": "view",
      "type": "function",
      "constant": true
    },
    {
      "inputs": [
        {
          "internalType": "address",
          "name": "queryAddress",
          "type": "address"
        }
      ],
      "name": "isRejected",
      "outputs": [
        {
          "internalType": "bool",
          "name": "",
          "type": "bool"
        }
      ],
      "stateMutability": "view",
      "type": "function",
      "constant": true
    }
  ],
  "bytecode": "0x60806040523480156200001157600080fd5b50604051620013de380380620013de8339818101604052810190620000379190620001f6565b8160009081620000489190620004c6565b5080600190816200005a9190620004c6565b505050620005ad565b6000604051905090565b600080fd5b600080fd5b600080fd5b600080fd5b6000601f19601f8301169050919050565b7f4e487b7100000000000000000000000000000000000000000000000000000000600052604160045260246000fd5b620000cc8262000081565b810181811067ffffffffffffffff82111715620000ee57620000ed62000092565b5b80604052505050565b60006200010362000063565b9050620001118282620000c1565b919050565b600067ffffffffffffffff82111562000134576200013362000092565b5b6200013f8262000081565b9050602081019050919050565b60005b838110156200016c5780820151818401526020810190506200014f565b60008484015250505050565b60006200018f620001898462000116565b620000f7565b905082815260208101848484011115620001ae57620001ad6200007c565b5b620001bb8482856200014c565b509392505050565b600082601f830112620001db57620001da62000077565b5b8151620001ed84826020860162000178565b91505092915050565b6000806040838503121562000210576200020f6200006d565b5b600083015167ffffffffffffffff81111562000231576200023062000072565b5b6200023f85828601620001c3565b925050602083015167ffffffffffffffff81111562000263576200026262000072565b5b6200027185828601620001c3565b9150509250929050565b600081519050919050565b7f4e487b7100000000000000000000000000000000000000000000000000000000600052602260045260246000fd5b60006002820490506001821680620002ce57607f821691505b602082108103620002e457620002e362000286565b5b50919050565b60008190508160005260206000209050919050565b60006020601f8301049050919050565b600082821b905092915050565b6000600883026200034e7fffffffffffffffffffffffffffffffffffffffffffffffffffffffffffffffff826200030f565b6200035a86836200030f565b95508019841693508086168417925050509392505050565b6000819050919050565b6000819050919050565b6000620003a7620003a16200039b8462000372565b6200037c565b62000372565b9050919050565b6000819050919050565b620003c38362000386565b620003db620003d282620003ae565b8484546200031c565b825550505050565b600090565b620003f2620003e3565b620003ff818484620003b8565b505050565b5b8181101562000427576200041b600082620003e8565b60018101905062000405565b5050565b601f82111562000476576200044081620002ea565b6200044b84620002ff565b810160208510156200045b578190505b620004736200046a85620002ff565b83018262000404565b50505b505050565b600082821c905092915050565b60006200049b600019846008026200047b565b1980831691505092915050565b6000620004b6838362000488565b9150826002028217905092915050565b620004d1826200027b565b67ffffffffffffffff811115620004ed57620004ec62000092565b5b620004f98254620002b5565b620005068282856200042b565b600060209050601f8311600181146200053e576000841562000529578287015190505b620005358582620004a8565b865550620005a5565b601f1984166200054e86620002ea565b60005b82811015620005785784890151825560018201915060208501945060208101905062000551565b8683101562000598578489015162000594601f89168262000488565b8355505b6001600288020188555050505b505050505050565b610e2180620005bd6000396000f3fe6080604052600436106100905760003560e01c8063b103030b11610059578063b103030b1461015e578063e16d75171461019b578063e2e7e963146101d8578063e6f091f914610201578063e9896cae1461023e57610090565b8062a3d8cb1461009557806348a46bd3146100b15780634c8d8232146100ee57806370782483146101175780637fb6c4fa14610133575b600080fd5b6100af60048036038101906100aa9190610a74565b610269565b005b3480156100bd57600080fd5b506100d860048036038101906100d39190610a74565b610330565b6040516100e59190610abc565b60405180910390f35b3480156100fa57600080fd5b5061011560048036038101906101109190610a74565b6103de565b005b610131600480360381019061012c9190610a74565b610570565b005b34801561013f57600080fd5b50610148610637565b6040516101559190610b67565b60405180910390f35b34801561016a57600080fd5b5061018560048036038101906101809190610bbf565b6106c5565b6040516101929190610bfb565b60405180910390f35b3480156101a757600080fd5b506101c260048036038101906101bd9190610bbf565b610704565b6040516101cf9190610bfb565b60405180910390f35b3480156101e457600080fd5b506101ff60048036038101906101fa9190610a74565b610743565b005b34801561020d57600080fd5b5061022860048036038101906102239190610a74565b6108d5565b6040516102359190610abc565b60405180910390f35b34801561024a57600080fd5b50610253610983565b6040516102609190610b67565b60405180910390f35b61027281610330565b156102b2576040517f08c379a00000000000000000000000000000000000000000000000000000000081526004016102a990610c62565b60405180910390fd5b6102bb816108d5565b156102ca576102c981610743565b5b6003819080600181540180825580915050600190039060005260206000200160009091909190916101000a81548173ffffffffffffffffffffffffffffffffffffffff021916908373ffffffffffffffffffffffffffffffffffffffff16021790555050565b600080600090505b6003805490508110156103d3578273ffffffffffffffffffffffffffffffffffffffff16600382815481106103705761036f610c82565b5b9060005260206000200160009054906101000a900473ffffffffffffffffffffffffffffffffffffffff1673ffffffffffffffffffffffffffffffffffffffff16036103c05760019150506103d9565b80806103cb90610ce0565b915050610338565b50600090505b919050565b60005b60038054905081101561056b578173ffffffffffffffffffffffffffffffffffffffff166003828154811061041957610418610c82565b5b9060005260206000200160009054906101000a900473ffffffffffffffffffffffffffffffffffffffff1673ffffffffffffffffffffffffffffffffffffffff160361055857600360016003805490506104739190610d28565b8154811061048457610483610c82565b5b9060005260206000200160009054906101000a900473ffffffffffffffffffffffffffffffffffffffff16600382815481106104c3576104c2610c82565b5b9060005260206000200160006101000a81548173ffffffffffffffffffffffffffffffffffffffff021916908373ffffffffffffffffffffffffffffffffffffffff160217905550600380548061051d5761051c610d5c565b5b6001900381819060005260206000200160006101000a81549073ffffffffffffffffffffffffffffffffffffffff021916905590555061056d565b808061056390610ce0565b9150506103e1565b505b50565b610579816108d5565b156105b9576040517f08c379a00000000000000000000000000000000000000000000000000000000081526004016105b090610c62565b60405180910390fd5b6105c281610330565b156105d1576105d0816103de565b5b6002819080600181540180825580915050600190039060005260206000200160009091909190916101000a81548173ffffffffffffffffffffffffffffffffffffffff021916908373ffffffffffffffffffffffffffffffffffffffff16021790555050565b6001805461064490610dba565b80601f016020809104026020016040519081016040528092919081815260200182805461067090610dba565b80156106bd5780601f10610692576101008083540402835291602001916106bd565b820191906000526020600020905b8154815290600101906020018083116106a057829003601f168201915b505050505081565b600281815481106106d557600080fd5b906000526020600020016000915054906101000a900473ffffffffffffffffffffffffffffffffffffffff1681565b6003818154811061071457600080fd5b906000526020600020016000915054906101000a900473ffffffffffffffffffffffffffffffffffffffff1681565b60005b6002805490508110156108d0578173ffffffffffffffffffffffffffffffffffffffff166002828154811061077e5761077d610c82565b5b9060005260206000200160009054906101000a900473ffffffffffffffffffffffffffffffffffffffff1673ffffffffffffffffffffffffffffffffffffffff16036108bd57600260016002805490506107d89190610d28565b815481106107e9576107e8610c82565b5b9060005260206000200160009054906101000a900473ffffffffffffffffffffffffffffffffffffffff166002828154811061082857610827610c82565b5b9060005260206000200160006101000a81548173ffffffffffffffffffffffffffffffffffffffff021916908373ffffffffffffffffffffffffffffffffffffffff160217905550600280548061088257610881610d5c565b5b6001900381819060005260206000200160006101000a81549073ffffffffffffffffffffffffffffffffffffffff02191690559055506108d2565b80806108c890610ce0565b915050610746565b505b50565b600080600090505b600280549050811015610978578273ffffffffffffffffffffffffffffffffffffffff166002828154811061091557610914610c82565b5b9060005260206000200160009054906101000a900473ffffffffffffffffffffffffffffffffffffffff1673ffffffffffffffffffffffffffffffffffffffff160361096557600191505061097e565b808061097090610ce0565b9150506108dd565b50600090505b919050565b6000805461099090610dba565b80601f01602080910402602001604051908101604052809291908181526020018280546109bc90610dba565b8015610a095780601f106109de57610100808354040283529160200191610a09565b820191906000526020600020905b8154815290600101906020018083116109ec57829003601f168201915b505050505081565b600080fd5b600073ffffffffffffffffffffffffffffffffffffffff82169050919050565b6000610a4182610a16565b9050919050565b610a5181610a36565b8114610a5c57600080fd5b50565b600081359050610a6e81610a48565b92915050565b600060208284031215610a8a57610a89610a11565b5b6000610a9884828501610a5f565b91505092915050565b60008115159050919050565b610ab681610aa1565b82525050565b6000602082019050610ad16000830184610aad565b92915050565b600081519050919050565b600082825260208201905092915050565b60005b83811015610b11578082015181840152602081019050610af6565b60008484015250505050565b6000601f19601f8301169050919050565b6000610b3982610ad7565b610b438185610ae2565b9350610b53818560208601610af3565b610b5c81610b1d565b840191505092915050565b60006020820190508181036000830152610b818184610b2e565b905092915050565b6000819050919050565b610b9c81610b89565b8114610ba757600080fd5b50565b600081359050610bb981610b93565b92915050565b600060208284031215610bd557610bd4610a11565b5b6000610be384828501610baa565b91505092915050565b610bf581610a36565b82525050565b6000602082019050610c106000830184610bec565b92915050565b7f596f75206861766520616c726561647920766f74656400000000000000000000600082015250565b6000610c4c601683610ae2565b9150610c5782610c16565b602082019050919050565b60006020820190508181036000830152610c7b81610c3f565b9050919050565b7f4e487b7100000000000000000000000000000000000000000000000000000000600052603260045260246000fd5b7f4e487b7100000000000000000000000000000000000000000000000000000000600052601160045260246000fd5b6000610ceb82610b89565b91507fffffffffffffffffffffffffffffffffffffffffffffffffffffffffffffffff8203610d1d57610d1c610cb1565b5b600182019050919050565b6000610d3382610b89565b9150610d3e83610b89565b9250828203905081811115610d5657610d55610cb1565b5b92915050565b7f4e487b7100000000000000000000000000000000000000000000000000000000600052603160045260246000fd5b7f4e487b7100000000000000000000000000000000000000000000000000000000600052602260045260246000fd5b60006002820490506001821680610dd257607f821691505b602082108103610de557610de4610d8b565b5b5091905056fea264697066735822122036815c0f45e65f20c00637aa82e6cf3ecde8a9d7987c6618d40b2153367d955e64736f6c63430008130033",
  "immutableReferences": {},
  "source": "// SPDX-License-Identifier: MIT\npragma solidity ^0.8.0;\n\ncontract Image {\n    string public ipfsId;\n    string public fileName;\n    address[] public acceptedAddresses;\n    address[] public rejectedAddresses;\n\n    constructor(string memory _ipfsId, string memory _fileName) {\n        ipfsId = _ipfsId;\n        fileName = _fileName;\n    }\n\n    function addToAccepted(address newAddress) public payable{\n        require(!isAccepted(newAddress), \"You have already voted\");\n\n        \n        if (isRejected(newAddress)) {\n            removeFromRejected(newAddress);\n        }\n\n        acceptedAddresses.push(newAddress);\n    }\n\n    function addToRejected(address newAddress) public payable{\n        require(!isRejected(newAddress), \"You have already voted\");\n      \n        if (isAccepted(newAddress)) {\n            removeFromAccepted(newAddress);\n        }\n\n        rejectedAddresses.push(newAddress);\n    }\n\n    function removeFromAccepted(address addressToRemove) public {\n        for (uint i = 0; i < acceptedAddresses.length; i++) {\n            if (acceptedAddresses[i] == addressToRemove) {\n                acceptedAddresses[i] = acceptedAddresses[acceptedAddresses.length - 1];\n                acceptedAddresses.pop();\n                return;\n            }\n        }\n    }\n\n    function removeFromRejected(address addressToRemove) public {\n        for (uint i = 0; i < rejectedAddresses.length; i++) {\n            if (rejectedAddresses[i] == addressToRemove) {\n                rejectedAddresses[i] = rejectedAddresses[rejectedAddresses.length - 1];\n                rejectedAddresses.pop();\n                return;\n            }\n        }\n    }\n\n    function isAccepted(address queryAddress) public view returns (bool) {\n        for (uint i = 0; i < acceptedAddresses.length; i++) {\n            if (acceptedAddresses[i] == queryAddress) {\n                return true;\n            }\n        }\n        return false;\n    }\n\n    function isRejected(address queryAddress) public view returns (bool) {\n        for (uint i = 0; i < rejectedAddresses.length; i++) {\n            if (rejectedAddresses[i] == queryAddress) {\n                return true;\n            }\n        }\n        return false;\n    }\n}\n",
  "sourcePath": "/home/alpha/Code/Hackathon/Cognition/blockchain/contracts/Image.sol",
  "compiler": {
    "name": "solc",
    "version": "0.8.19+commit.7dd6d404.Emscripten.clang"
  },
  "schemaVersion": "3.4.13",
  "updatedAt": "2023-05-06T08:39:53.366Z",
  "networkType": "ethereum",
  "devdoc": {
    "kind": "dev",
    "methods": {},
    "version": 1
  },
  "userdoc": {
    "kind": "user",
    "methods": {},
    "version": 1
  }
}