{
  "contractName": "ImageStorage",
  "abi": [
    {
      "anonymous": false,
      "inputs": [
        {
          "indexed": false,
          "internalType": "string",
          "name": "ipfsId",
          "type": "string"
        }
      ],
      "name": "ImageAdded",
      "type": "event"
    },
    {
      "inputs": [
        {
          "internalType": "uint256",
          "name": "",
          "type": "uint256"
        }
      ],
      "name": "images",
      "outputs": [
        {
          "internalType": "contract Image",
          "name": "",
          "type": "address"
        }
      ],
      "stateMutability": "view",
      "type": "function",
      "constant": true
    },
    {
      "inputs": [
        {
          "internalType": "string",
          "name": "ipfsId",
          "type": "string"
        },
        {
          "internalType": "string",
          "name": "fileName",
          "type": "string"
        }
      ],
      "name": "addImage",
      "outputs": [],
      "stateMutability": "payable",
      "type": "function",
      "payable": true
    },
    {
      "inputs": [],
      "name": "getImages",
      "outputs": [
        {
          "internalType": "contract Image[]",
          "name": "",
          "type": "address[]"
        }
      ],
      "stateMutability": "view",
      "type": "function",
      "constant": true
    },
    {
      "inputs": [
        {
          "internalType": "uint256",
          "name": "index",
          "type": "uint256"
        }
      ],
      "name": "getImage",
      "outputs": [
        {
          "internalType": "contract Image",
          "name": "",
          "type": "address"
        }
      ],
      "stateMutability": "view",
      "type": "function",
      "constant": true
    }
  ],
  "bytecode": "0x608060405234801561001057600080fd5b50611d12806100206000396000f3fe608060405260043610620000445760003560e01c80631149833414620000495780632607aafa14620000795780638485648214620000bd578063a6eecd181462000101575b600080fd5b3480156200005657600080fd5b506200006162000121565b604051620000709190620004bb565b60405180910390f35b3480156200008657600080fd5b50620000a560048036038101906200009f91906200052e565b620001b1565b604051620000b4919062000571565b60405180910390f35b348015620000ca57600080fd5b50620000e96004803603810190620000e391906200052e565b62000245565b604051620000f8919062000571565b60405180910390f35b6200011f6004803603810190620001199190620006f0565b62000285565b005b60606000805480602002602001604051908101604052809291908181526020018280548015620001a757602002820191906000526020600020905b8160009054906101000a900473ffffffffffffffffffffffffffffffffffffffff1673ffffffffffffffffffffffffffffffffffffffff16815260200190600101908083116200015c575b5050505050905090565b600080805490508210620001fc576040517f08c379a0000000000000000000000000000000000000000000000000000000008152600401620001f390620007d6565b60405180910390fd5b60008281548110620002135762000212620007f8565b5b9060005260206000200160009054906101000a900473ffffffffffffffffffffffffffffffffffffffff169050919050565b600081815481106200025657600080fd5b906000526020600020016000915054906101000a900473ffffffffffffffffffffffffffffffffffffffff1681565b60008282604051620002979062000365565b620002a49291906200089f565b604051809103906000f080158015620002c1573d6000803e3d6000fd5b5090506000819080600181540180825580915050600190039060005260206000200160009091909190916101000a81548173ffffffffffffffffffffffffffffffffffffffff021916908373ffffffffffffffffffffffffffffffffffffffff1602179055507f185bef9480317fa50b92f188bcc6ea3841e9b351ed1c973d1076c8b3d1931c5883604051620003589190620008da565b60405180910390a1505050565b6113de80620008ff83390190565b600081519050919050565b600082825260208201905092915050565b6000819050602082019050919050565b600073ffffffffffffffffffffffffffffffffffffffff82169050919050565b6000819050919050565b6000620003ea620003e4620003de846200039f565b620003bf565b6200039f565b9050919050565b6000620003fe82620003c9565b9050919050565b60006200041282620003f1565b9050919050565b620004248162000405565b82525050565b600062000438838362000419565b60208301905092915050565b6000602082019050919050565b60006200045e8262000373565b6200046a81856200037e565b935062000477836200038f565b8060005b83811015620004ae5781516200049288826200042a565b97506200049f8362000444565b9250506001810190506200047b565b5085935050505092915050565b60006020820190508181036000830152620004d7818462000451565b905092915050565b6000604051905090565b600080fd5b600080fd5b6000819050919050565b6200050881620004f3565b81146200051457600080fd5b50565b6000813590506200052881620004fd565b92915050565b600060208284031215620005475762000546620004e9565b5b6000620005578482850162000517565b91505092915050565b6200056b8162000405565b82525050565b600060208201905062000588600083018462000560565b92915050565b600080fd5b600080fd5b6000601f19601f8301169050919050565b7f4e487b7100000000000000000000000000000000000000000000000000000000600052604160045260246000fd5b620005e38262000598565b810181811067ffffffffffffffff82111715620006055762000604620005a9565b5b80604052505050565b60006200061a620004df565b9050620006288282620005d8565b919050565b600067ffffffffffffffff8211156200064b576200064a620005a9565b5b620006568262000598565b9050602081019050919050565b82818337600083830152505050565b60006200068962000683846200062d565b6200060e565b905082815260208101848484011115620006a857620006a762000593565b5b620006b584828562000663565b509392505050565b600082601f830112620006d557620006d46200058e565b5b8135620006e784826020860162000672565b91505092915050565b600080604083850312156200070a5762000709620004e9565b5b600083013567ffffffffffffffff8111156200072b576200072a620004ee565b5b6200073985828601620006bd565b925050602083013567ffffffffffffffff8111156200075d576200075c620004ee565b5b6200076b85828601620006bd565b9150509250929050565b600082825260208201905092915050565b7f496d61676520696e646578206f7574206f6620626f756e647300000000000000600082015250565b6000620007be60198362000775565b9150620007cb8262000786565b602082019050919050565b60006020820190508181036000830152620007f181620007af565b9050919050565b7f4e487b7100000000000000000000000000000000000000000000000000000000600052603260045260246000fd5b600081519050919050565b60005b838110156200085257808201518184015260208101905062000835565b60008484015250505050565b60006200086b8262000827565b62000877818562000775565b93506200088981856020860162000832565b620008948162000598565b840191505092915050565b60006040820190508181036000830152620008bb81856200085e565b90508181036020830152620008d181846200085e565b90509392505050565b60006020820190508181036000830152620008f681846200085e565b90509291505056fe60806040523480156200001157600080fd5b50604051620013de380380620013de8339818101604052810190620000379190620001f6565b8160009081620000489190620004c6565b5080600190816200005a9190620004c6565b505050620005ad565b6000604051905090565b600080fd5b600080fd5b600080fd5b600080fd5b6000601f19601f8301169050919050565b7f4e487b7100000000000000000000000000000000000000000000000000000000600052604160045260246000fd5b620000cc8262000081565b810181811067ffffffffffffffff82111715620000ee57620000ed62000092565b5b80604052505050565b60006200010362000063565b9050620001118282620000c1565b919050565b600067ffffffffffffffff82111562000134576200013362000092565b5b6200013f8262000081565b9050602081019050919050565b60005b838110156200016c5780820151818401526020810190506200014f565b60008484015250505050565b60006200018f620001898462000116565b620000f7565b905082815260208101848484011115620001ae57620001ad6200007c565b5b620001bb8482856200014c565b509392505050565b600082601f830112620001db57620001da62000077565b5b8151620001ed84826020860162000178565b91505092915050565b6000806040838503121562000210576200020f6200006d565b5b600083015167ffffffffffffffff81111562000231576200023062000072565b5b6200023f85828601620001c3565b925050602083015167ffffffffffffffff81111562000263576200026262000072565b5b6200027185828601620001c3565b9150509250929050565b600081519050919050565b7f4e487b7100000000000000000000000000000000000000000000000000000000600052602260045260246000fd5b60006002820490506001821680620002ce57607f821691505b602082108103620002e457620002e362000286565b5b50919050565b60008190508160005260206000209050919050565b60006020601f8301049050919050565b600082821b905092915050565b6000600883026200034e7fffffffffffffffffffffffffffffffffffffffffffffffffffffffffffffffff826200030f565b6200035a86836200030f565b95508019841693508086168417925050509392505050565b6000819050919050565b6000819050919050565b6000620003a7620003a16200039b8462000372565b6200037c565b62000372565b9050919050565b6000819050919050565b620003c38362000386565b620003db620003d282620003ae565b8484546200031c565b825550505050565b600090565b620003f2620003e3565b620003ff818484620003b8565b505050565b5b8181101562000427576200041b600082620003e8565b60018101905062000405565b5050565b601f82111562000476576200044081620002ea565b6200044b84620002ff565b810160208510156200045b578190505b620004736200046a85620002ff565b83018262000404565b50505b505050565b600082821c905092915050565b60006200049b600019846008026200047b565b1980831691505092915050565b6000620004b6838362000488565b9150826002028217905092915050565b620004d1826200027b565b67ffffffffffffffff811115620004ed57620004ec62000092565b5b620004f98254620002b5565b620005068282856200042b565b600060209050601f8311600181146200053e576000841562000529578287015190505b620005358582620004a8565b865550620005a5565b601f1984166200054e86620002ea565b60005b82811015620005785784890151825560018201915060208501945060208101905062000551565b8683101562000598578489015162000594601f89168262000488565b8355505b6001600288020188555050505b505050505050565b610e2180620005bd6000396000f3fe6080604052600436106100905760003560e01c8063b103030b11610059578063b103030b1461015e578063e16d75171461019b578063e2e7e963146101d8578063e6f091f914610201578063e9896cae1461023e57610090565b8062a3d8cb1461009557806348a46bd3146100b15780634c8d8232146100ee57806370782483146101175780637fb6c4fa14610133575b600080fd5b6100af60048036038101906100aa9190610a74565b610269565b005b3480156100bd57600080fd5b506100d860048036038101906100d39190610a74565b610330565b6040516100e59190610abc565b60405180910390f35b3480156100fa57600080fd5b5061011560048036038101906101109190610a74565b6103de565b005b610131600480360381019061012c9190610a74565b610570565b005b34801561013f57600080fd5b50610148610637565b6040516101559190610b67565b60405180910390f35b34801561016a57600080fd5b5061018560048036038101906101809190610bbf565b6106c5565b6040516101929190610bfb565b60405180910390f35b3480156101a757600080fd5b506101c260048036038101906101bd9190610bbf565b610704565b6040516101cf9190610bfb565b60405180910390f35b3480156101e457600080fd5b506101ff60048036038101906101fa9190610a74565b610743565b005b34801561020d57600080fd5b5061022860048036038101906102239190610a74565b6108d5565b6040516102359190610abc565b60405180910390f35b34801561024a57600080fd5b50610253610983565b6040516102609190610b67565b60405180910390f35b61027281610330565b156102b2576040517f08c379a00000000000000000000000000000000000000000000000000000000081526004016102a990610c62565b60405180910390fd5b6102bb816108d5565b156102ca576102c981610743565b5b6003819080600181540180825580915050600190039060005260206000200160009091909190916101000a81548173ffffffffffffffffffffffffffffffffffffffff021916908373ffffffffffffffffffffffffffffffffffffffff16021790555050565b600080600090505b6003805490508110156103d3578273ffffffffffffffffffffffffffffffffffffffff16600382815481106103705761036f610c82565b5b9060005260206000200160009054906101000a900473ffffffffffffffffffffffffffffffffffffffff1673ffffffffffffffffffffffffffffffffffffffff16036103c05760019150506103d9565b80806103cb90610ce0565b915050610338565b50600090505b919050565b60005b60038054905081101561056b578173ffffffffffffffffffffffffffffffffffffffff166003828154811061041957610418610c82565b5b9060005260206000200160009054906101000a900473ffffffffffffffffffffffffffffffffffffffff1673ffffffffffffffffffffffffffffffffffffffff160361055857600360016003805490506104739190610d28565b8154811061048457610483610c82565b5b9060005260206000200160009054906101000a900473ffffffffffffffffffffffffffffffffffffffff16600382815481106104c3576104c2610c82565b5b9060005260206000200160006101000a81548173ffffffffffffffffffffffffffffffffffffffff021916908373ffffffffffffffffffffffffffffffffffffffff160217905550600380548061051d5761051c610d5c565b5b6001900381819060005260206000200160006101000a81549073ffffffffffffffffffffffffffffffffffffffff021916905590555061056d565b808061056390610ce0565b9150506103e1565b505b50565b610579816108d5565b156105b9576040517f08c379a00000000000000000000000000000000000000000000000000000000081526004016105b090610c62565b60405180910390fd5b6105c281610330565b156105d1576105d0816103de565b5b6002819080600181540180825580915050600190039060005260206000200160009091909190916101000a81548173ffffffffffffffffffffffffffffffffffffffff021916908373ffffffffffffffffffffffffffffffffffffffff16021790555050565b6001805461064490610dba565b80601f016020809104026020016040519081016040528092919081815260200182805461067090610dba565b80156106bd5780601f10610692576101008083540402835291602001916106bd565b820191906000526020600020905b8154815290600101906020018083116106a057829003601f168201915b505050505081565b600281815481106106d557600080fd5b906000526020600020016000915054906101000a900473ffffffffffffffffffffffffffffffffffffffff1681565b6003818154811061071457600080fd5b906000526020600020016000915054906101000a900473ffffffffffffffffffffffffffffffffffffffff1681565b60005b6002805490508110156108d0578173ffffffffffffffffffffffffffffffffffffffff166002828154811061077e5761077d610c82565b5b9060005260206000200160009054906101000a900473ffffffffffffffffffffffffffffffffffffffff1673ffffffffffffffffffffffffffffffffffffffff16036108bd57600260016002805490506107d89190610d28565b815481106107e9576107e8610c82565b5b9060005260206000200160009054906101000a900473ffffffffffffffffffffffffffffffffffffffff166002828154811061082857610827610c82565b5b9060005260206000200160006101000a81548173ffffffffffffffffffffffffffffffffffffffff021916908373ffffffffffffffffffffffffffffffffffffffff160217905550600280548061088257610881610d5c565b5b6001900381819060005260206000200160006101000a81549073ffffffffffffffffffffffffffffffffffffffff02191690559055506108d2565b80806108c890610ce0565b915050610746565b505b50565b600080600090505b600280549050811015610978578273ffffffffffffffffffffffffffffffffffffffff166002828154811061091557610914610c82565b5b9060005260206000200160009054906101000a900473ffffffffffffffffffffffffffffffffffffffff1673ffffffffffffffffffffffffffffffffffffffff160361096557600191505061097e565b808061097090610ce0565b9150506108dd565b50600090505b919050565b6000805461099090610dba565b80601f01602080910402602001604051908101604052809291908181526020018280546109bc90610dba565b8015610a095780601f106109de57610100808354040283529160200191610a09565b820191906000526020600020905b8154815290600101906020018083116109ec57829003601f168201915b505050505081565b600080fd5b600073ffffffffffffffffffffffffffffffffffffffff82169050919050565b6000610a4182610a16565b9050919050565b610a5181610a36565b8114610a5c57600080fd5b50565b600081359050610a6e81610a48565b92915050565b600060208284031215610a8a57610a89610a11565b5b6000610a9884828501610a5f565b91505092915050565b60008115159050919050565b610ab681610aa1565b82525050565b6000602082019050610ad16000830184610aad565b92915050565b600081519050919050565b600082825260208201905092915050565b60005b83811015610b11578082015181840152602081019050610af6565b60008484015250505050565b6000601f19601f8301169050919050565b6000610b3982610ad7565b610b438185610ae2565b9350610b53818560208601610af3565b610b5c81610b1d565b840191505092915050565b60006020820190508181036000830152610b818184610b2e565b905092915050565b6000819050919050565b610b9c81610b89565b8114610ba757600080fd5b50565b600081359050610bb981610b93565b92915050565b600060208284031215610bd557610bd4610a11565b5b6000610be384828501610baa565b91505092915050565b610bf581610a36565b82525050565b6000602082019050610c106000830184610bec565b92915050565b7f596f75206861766520616c726561647920766f74656400000000000000000000600082015250565b6000610c4c601683610ae2565b9150610c5782610c16565b602082019050919050565b60006020820190508181036000830152610c7b81610c3f565b9050919050565b7f4e487b7100000000000000000000000000000000000000000000000000000000600052603260045260246000fd5b7f4e487b7100000000000000000000000000000000000000000000000000000000600052601160045260246000fd5b6000610ceb82610b89565b91507fffffffffffffffffffffffffffffffffffffffffffffffffffffffffffffffff8203610d1d57610d1c610cb1565b5b600182019050919050565b6000610d3382610b89565b9150610d3e83610b89565b9250828203905081811115610d5657610d55610cb1565b5b92915050565b7f4e487b7100000000000000000000000000000000000000000000000000000000600052603160045260246000fd5b7f4e487b7100000000000000000000000000000000000000000000000000000000600052602260045260246000fd5b60006002820490506001821680610dd257607f821691505b602082108103610de557610de4610d8b565b5b5091905056fea264697066735822122036815c0f45e65f20c00637aa82e6cf3ecde8a9d7987c6618d40b2153367d955e64736f6c63430008130033a2646970667358221220a597fc7e34f9379eff88dff9af9c4b2f1bd4b0f7269810aa98da6b07f48856e364736f6c63430008130033",
  "immutableReferences": {},
  "source": "// SPDX-License-Identifier: MIT\npragma solidity ^0.8.0;\n\n\nimport \"./Image.sol\";\n\n\ncontract ImageStorage {\n    Image[] public images;\n\n    event ImageAdded(string ipfsId);\n\n    function addImage(string memory ipfsId, string memory fileName) public payable {\n        Image newImage = new Image(ipfsId, fileName);\n        images.push(newImage);\n        emit ImageAdded(ipfsId);\n    }\n\n    function getImages() public view returns (Image[] memory) {\n        return images;\n    }\n\n    function getImage(uint index) public view returns (Image) {\n        require(index < images.length, \"Image index out of bounds\");\n        return images[index];\n    }\n}",
  "sourcePath": "/home/alpha/Code/Hackathon/Cognition/blockchain/contracts/ImageStorage.sol",
  "compiler": {
    "name": "solc",
    "version": "0.8.19+commit.7dd6d404.Emscripten.clang"
  },
  "schemaVersion": "3.4.13",
  "updatedAt": "2023-05-06T06:39:58.476Z",
  "networkType": "ethereum",
  "devdoc": {
    "kind": "dev",
    "methods": {},
    "version": 1
  },
  "userdoc": {
    "kind": "user",
    "methods": {},
    "version": 1
  }
}